:020000040800F2
:10000000007B0120B10200084B8500082178000820
:10001000498500084F0C000879C300080000000063
:10002000000000000000000000000000139900081C
:10003000C90E000800000000C78600081F990008CC
:10004000CB020008CB020008CB020008CB0200085C
:10005000110F0008CB020008CB020008CB020008F9
:10006000CB020008CB020008CB020008990C000864
:10007000A50C0008CB020008CB020008CB02000848
:10008000CB020008CB020008CB020008CB0200081C
:10009000CB020008CB020008CB020008CB0200080C
:1000A000CB020008C59A0008CB020008CB0200086A
:1000B000D19A0008CB020008CB020008CB0200084E
:1000C000CB020008CB020008CB020008CB020008DC
:1000D000CB02000855A8000861A80008CB02000860
:1000E000CB020008CB02000800000000CB02000891
:1000F000CB020008CB020008CB020008CB020008AC
:10010000CB020008E9890008CB020008CB020008F6
:10011000CB020008CB020008CB020008CB0200088B
:10012000CB020008CB020008CB020008CB0200087B
:10013000CB020008CB020008CB020008CB0200086B
:1001400000000000000000000000000000000000AF
:10015000CB020008CB020008CB020008CB0200084B
:10016000CB020008CB020008CB020008CB0200083B
:10017000CB020008CB020008CB020008CB0200082B
:10018000CB020008CB020008CB020008CB0200081B
:100190002D960008CB020008CB020008CB02000815
:1001A000CB020008CB020008CB020008CB020008FB
:1001B000CB020008CB020008CB020008CB020008EB
:1001C000CB020008CB020008CB020008CB020008DB
:1001D000CB0200084D850008CB020008CB020008C6
:1001E000CB020008CB020008CB020008CB020008BB
:1001F000CB020008CB020008CB020008CB020008AB
:10020000CB020008CB020008CB020008CB0200089A
:10021000CB020008CB020008CB020008CB0200088A
:10022000CB020008CB020008CB020008000000004F
:10023000CB020008CB02000800000000CB0200083F
:10024000CB020008CB020008CB020008CB0200085A
:10025000CB020008CB020008CB020008CB0200084A
:10026000CB020008CB020008CB020008CB0200083A
:10027000CB020008CB020008CB02000800000000FF
:10028000CB020008CB020008CB02000800000000EF
:1002900000000000CB020008DFF810D000F0CEF91B
:1002A0000048004745B20208AFF30080007B012000
:1002B0000648804706480047FEE7FEE7FEE7FEE700
:1002C000FEE7FEE7FEE7FEE7FEE7FEE7E999000846
:1002D000990200082DE9F05F0546002092469B46F2
:1002E00088460646814640241BE02846414647464C
:1002F000224600F050F953465A46C01A914110D395
:1003000011461846224600F037F92D1A67EB01080E
:100310004F4622460120002100F02EF917EB00097C
:100320004E41201EA4F10104DFDC484631462A4636
:100330004346BDE8F09F40EA01039B0703D009E074
:1003400008C9121F08C0042AFAD203E011F8013BC1
:1003500000F8013B521EF9D27047D2B201E000F81A
:10036000012B491EFBD270470022F6E710B5134659
:100370000A4604461946FFF7F0FF204610BD421C0E
:1003800010F8011B0029FBD1801A704710B500221C
:1003900000E0521C835C8C5CA34201D1002BF8D19D
:1003A000D8B2E1B2401A10BD30B504460020034671
:1003B00000E05B1C934203D2E05CCD5C401BF8D0B4
:1003C00030BD034611F8012B00F8012B002AF9D1AA
:1003D0001846704730B505460020034600E05B1C18
:1003E000934205D2EC5CC85C201A01D1002CF6D1F6
:1003F00030BD00000FB400B58DB010A909900B906E
:1004000000914FF0FF300A9000200C9005480690B4
:10041000054807906A4609A80F9900F0E1F80DB069
:100420005DF814FBFD0500081B0600082DE9FF5FC1
:100430001D464FF0FF3BD5E9014691465F464FF020
:100440000008A9697F1C01988847296A8246884765
:100450000028F6D1BAF1FF3F0CD024F4C064002E7E
:1004600019DD600614D5BAF12B0F09D0BAF12D0FA2
:100470000ED103E0584604B0BDE8F09F44F4806418
:10048000A9697F1C01988847761E8246002E02DDEE
:10049000BAF1300F03D0B9F1000F26D032E0A969CC
:1004A000761E44F400747F1C019888478246002E13
:1004B00005DDBAF1780F06D0BAF1580F03D0B9F1C3
:1004C000000F10D01EE0B9F1000F02D0B9F1100FEB
:1004D00018D1A969761E24F400747F1C01988847FE
:1004E0008246102002E0082000E00A20814609E050
:1004F00008FB0908A969761E44F400747F1C019862
:1005000088478246002E05DD4946504600F053F8E4
:100510000028EDDAE96901988847A00502D46FF058
:100520000100A8E7E00725D1600613D5600502D5D4
:10053000C8F1000000E0404629680A1D2A600968E9
:10054000220501D5087015E0220701D5088011E0C9
:1005500008600FE02868011D29600068210502D5A8
:1005600080F8008006E0210702D5A0F8008001E0B5
:10057000C0F8008038467EE7202A04DB203A00FAE3
:1005800002F1002070479140C2F1200320FA03F3EA
:10059000194390407047202A04DB203A21FA02F0E8
:1005A0000021704721FA02F3D040C2F120029140AD
:1005B0000843194670473A2800D2303820F020020C
:1005C000412A01D3A2F13700884201D34FF0FF3016
:1005D00070470000026811441378016018467047A4
:1005E000D160044951610449116200211161114631
:1005F00000F03CB8D505000861060008426842B129
:10060000016811F8013B23B1521EC0E900121846DF
:1006100070470121C160881E704742685AB1C368A3
:10062000016843B983688B4205D0491E521CC0E95A
:100630000012002070474FF0FF307047064C074D06
:1006400006E0E06840F0010394E8070098471034A2
:10065000AC42F6D3FFF724FEBCB70408DCB70408AD
:10066000C0B24FF4F05100F099B900002DE9F34FFA
:100670008BB04FF0000801F10C000C464FF0010B5D
:1006800046460DF1080A01906269012101989047E0
:10069000051E2DD0252D2CD0216A8847C0B1626956
:1006A000012101989047216A88470028F7D1411E0F
:1006B00062690198904700E0761CA1690B98884711
:1006C000216A88470028F7D1E1690B988847DBE762
:1006D000A1690B9888470746A84201D1761CD3E749
:1006E000E1690B9888477F1C02D1B8F1000F6FD0E9
:1006F00047E1002762693D463946019890472A281C
:1007000004D162690121019890470125DFF88892A0
:100710006269012101989047A0F130010A290AD2AB
:100720004F45E5DC07EB870100EB4107303FDFD4A5
:1007300045F01005ECE7E90601D46FF000476C289E
:100740000AD04C2814D0682815D06A280DD07428F7
:100750001CD07A281AD01DE06269012101989047C7
:100760006C2802D045F0040514E045F002050DE0C8
:1007700045F020050AE06269012101989047682848
:1007800002D045F0080505E045F4006562690121E5
:1007900001989047C4E9015765283DD019DC5828D5
:1007A0007AD00CDC452837D004DC252826D0412817
:1007B00031D131E046282FD047282CD12CE05B28BE
:1007C00077D0612828D063287CD0642823D15AE0D0
:1007D000D1E06F2848D008DC66281DD067281BD0E0
:1007E000692821D06E2816D127E0702845D07328BB
:1007F00068D0752847D078280DD14DE0A1690B98B5
:100800008847054625283FF469AFE1690B9888477A
:100810006D1C3FF46AAFB4E023466A466FF00100F6
:100820000B99AFF300809FE045F040006060A8079F
:1008300023464FF0000236D43EE0E8077FF447AF8E
:100840002068011D21600068290501D506701BE79D
:10085000290701D5068017E7A90703D5F117C0E9D5
:10086000006111E706600FE745F040006060A807EF
:1008700023464FF0080216D41EE040F60E0125EA8A
:100880000100606016E045F040006060A807234664
:100890004FF00A0207D40FE045F040006060A8075F
:1008A00008D5234610226FF001000B99AFF30080AA
:1008B0005AE007E0234610226FF001000B99FFF782
:1008C000B5FD51E04FF000094F464B46632802D07A
:1008D0005B2807D041E02079C00601D40120A06048
:1008E00001273AE062690121019890475E2805D10D
:1008F0004FF001096269494601989047216939B969
:1009000000210A46534643F82120491C0829FADBF6
:10091000B0B3216969B9C11700EBD16253110AEB79
:10092000830122F01F02821A01200B6890400343CA
:100930000B6062690121019890475D28E8D1B9F107
:10094000000F09D00020514651F82020D24341F831
:100950002020401C0828F7DB02AB224600976FF0EE
:1009600001000B99AFF3008000280CDA401C08D17D
:10097000BBF1000F05D04FF0FF300DB0BDE8F08F98
:10098000FFE74046F9E7E90701D108F1010806440D
:100990004FF0000B78E60000CCCCCC0C7F2801D9BE
:1009A000002208E0064A02EB5002C007127800D18C
:1009B000120902F00F020120904008407047000029
:1009C0000CAF040870B58C1810F8015B15F0070324
:1009D00001D110F8013B2A1106D110F8012B03E0D8
:1009E00010F8016B01F8016B5B1EF9D12B0705D4E0
:1009F0000023521E0DD401F8013BFAE710F8013B29
:100A0000CB1A921C03E013F8015B01F8015B521E44
:100A1000F9D5A142D8D3002070BD000070B53A4985
:100A200005460068884202D0384A904202D1D1F887
:100A3000080302E03648D0F8080310F4403F11D014
:100A400004F0E6F904466868B0F5803F06D0B0F5DA
:100A5000003F03D0B0F5403F27D101E0000C18E083
:100A6000A40822E000214FF4002003F069FA0446B4
:100A700068688103890B18D181140C2915D2DFE82D
:100A800001F0140606060606060B0D0F1113800C66
:100A90004000B4FBF0F408E0240906E0640904E037
:100AA000A40902E0E40900E0240A02F0B5F941F2E9
:100AB0000301884208D8174884422868816813D8FF
:100AC00021F48071816070BD13496008884204D8A8
:100AD0002868816821F44071F4E71049884206D8FB
:100AE0002868816821F4407141F48071EAE70C497B
:100AF00088422868816804D821F4407141F400716B
:100B0000E0E741F44071DDE70020024000210240AF
:100B100000600258002D3101105E5F0020BCBE0055
:100B200040787D0170B50446006881688268C1F331
:100B3000400112F0010F28D039BB816801F00D018E
:100B4000012914D18168124A1140891C81602168F1
:100B50000320086002F066F9054612E002F062F92F
:100B6000401B02280DD920688068C00709D0606D3D
:100B700040F010006065A06D40F00100A06501200C
:100B800070BD20688068C007E8D1002070BD0000FB
:100B9000C0FFFF7F70B54FF0000508B1AD1E1CE02F
:100BA00000F020F8012802D06FF0060515E00C4C8B
:100BB000204608F0ABFB204607F072FB6FF00306FF
:100BC00028B94FF48041204604F0BAFD08B13546FB
:100BD00003E00221204604F051FD284670BD0000CC
:100BE000C812002010B16FF001007047012070475B
:100BF00038B564254FF00004002803FB05F001D050
:100C0000A41E06E00090044805F0E0F908B16FF07A
:100C10000304204638BD0000C812002070470000C1
:100C200038B564254FF00004002803FB05F001D01F
:100C3000A41E06E00090044805F0C2FA08B16FF067
:100C40000304204638BD0000C81200207047FEE7AC
:100C5000002070470020704705490022054810B564
:100C600009F0EAFF0449034809F0D9FF002010BD4C
:100C7000687300208C660020686B002001460448E1
:100C800010B509F0CCFF024809F0A2FF002010BD0A
:100C90008C66002000207047014801F065B9000013
:100CA0009C650020014801F05FB900001466002037
:100CB000294A016891423AD0274A1832914236D0E7
:100CC000254A3032914232D0234A483291422ED0C6
:100CD000214A603291422AD01F4A7832914226D06E
:100CE0001D4A9032914222D01B4AA83291421ED016
:100CF0001A4A91421BD0194A1832914217D0174A0A
:100D00003032914213D0154A483291420FD0134AE3
:100D1000603291420BD0114A7832914207D00F4A8B
:100D20009032914203D00D4AA832914211D1CAB2F9
:100D30001823103AB2FBF3F26FF30901032A02F011
:100D40000703074AD25CC26500D9091D81650846C0
:100D5000704721F0FF01F9E7100002401004024043
:100D6000B61E030830B5224A012301689142CAB277
:100D70001BD01F4C1434A14217D01D4C2834A14263
:100D800013D01B4C3C34A1420FD0194C5034A1421B
:100D90000BD0174C6434A14207D0154C7834A142D3
:100DA00003D0134C8C34A1420CD11421114C083ABD
:100DB000B2FBF1F10F4A803201F01F0504EB810113
:100DC000AB4010E00C4D1824103A0D44B2FBF4F186
:100DD000A82D00D80831094A01F01F0402EB810157
:100DE000064AA3408032603080E80E0030BD00002B
:100DF0000854025800580258F0FBFDBF000802409A
:100E000010B50279531E072B2DD8174C0168A1424B
:100E10001BD0154C1434A14217D0134C2834A142D6
:100E200013D0114C3C34A1420FD00F4C5034A1428E
:100E30000BD00D4C6434A14207D00B4C7834A14246
:100E400003D0094C8C34A14203D10849074C4431EA
:100E500002E00749064C443104EB8202C0E91B2141
:100E600001219940416710BD08540258FC580258AE
:100E7000FC08024010B583694FF0C074826A0146D5
:100E8000002053B1B3F5005F15D072B1012A0CD028
:100E9000022A0AD0032A09D104E01AB1012A06D095
:100EA000022A03D1C96AC90100D5012010BDC96A4F
:100EB000A142FAD010BD002AF7D0012AF2D0022AAE
:100EC000F3D0032AF3D010BD704772B6FEE70000DE
:100ED00030B584240D4BCD0744EA002007D0DC68F0
:100EE00024F4E664DC60DC6814430443DC608907B6
:100EF0000BD5D3F80C1121F4E661C3F80C11D3F82B
:100F00000C1111430143C3F80C1130BD00200052F5
:100F100001F094BDF8B50027044615460E4600972B
:100F200090F8500001280BD0012084F85000204692
:100F3000FFF7F8FD0100606D04D040F010002DE0D7
:100F40000220F8BD20F4885040F00200606520685F
:100F500006F4803205F08043134D1A4383682B401A
:100F60001A4342F000428260104A20680EE0009B63
:100F70005B1C0093934209D3606D84F8507020F09D
:100F8000020040F0100060650120F8BD8368DB0FAF
:100F9000EDD1606D20F0020040F001006065084670
:100FA00084F85070F8BD0000C0FFFE3F00F8C32574
:100FB0002DE9F0470F4690F850109AB004460129E9
:100FC0004FF0000915D00026DFF8F880012084F8E2
:100FD000500015961696216841450ED13A4D009560
:100FE000284606F0E9FF8246206806F0E5FF60B17A
:100FF0000EE002201AB0BDE8F087606D84F8506002
:1010000040F0200060650120F4E7BAF1000F09D03C
:10101000616D4FF0010941F020006065484684F899
:101020005060E7E720684146884201D0A84201D1DC
:10103000264800E0264840F61F72D7F800C0254B2E
:10104000BCF1000F23D0D0F808C0D7F804802CF4EE
:10105000404C4CEA080CC0F808C0D4F800C08C45DD
:1010600001D0AC4507D18968AB6801F0010103F0FC
:101070000103194302E0996801F001010029CDD173
:10108000BD683968836829439343194317E087682B
:1010900027F44047876027688F4201D0AF4207D1CD
:1010A0008968AB6801F0010103F00103194302E014
:1010B000996801F001010029B0D1816891438160F4
:1010C000ACE7000000200240002102400023024063
:1010D00000630258006002582DE9F84F0446EB4EB9
:1010E0000020DFF8ACB30090002794F850000D46C4
:1010F000DFF8A0A3012808D04FF0010984F8509030
:10110000206806F055FF18B171E10220BDE8F88FA4
:10111000286800280EDB21680303CA6928D090FAEA
:10112000A0F0B0FA80F000BF00F01F0309FA03F04E
:101130000243CA61D5E900124FF00C0C20681F234E
:10114000C1F384610CEA921C02F01F0260449340D8
:101150009140026B9A430A430263206806F028FF1D
:101160008046206806F020FF58EA000003D08DE09A
:10117000C0F38460D8E72A68042320684FF0070C86
:10118000A96803EAD25318444369C2F304520CFA23
:1011900002FC914023EA0C030B434361BE490968FA
:1011A000B9EB117F06D121686869C968C1F3820172
:1011B000490008E02068C168C906C1686869F5D5BA
:1011C00001F0100149088840296904292ED02368BC
:1011D0002A6803EB810102F0F8420B6E024303F030
:1011E000004010430866697E22682869012917D0EB
:1011F0005FF0000102EB8000026E22F000420A4321
:101200000266297E20682A6901290CD00021036921
:1012100002F01F02914023F4F0420A43026135E0DC
:101220004FF00041E6E74FF40061F0E720682978CD
:10123000026E02F0F842B2EB816F03D1016E21F031
:101240000041016620682978426E02F0F842B2EB54
:10125000816F03D1416E21F00041416620682978F9
:10126000826E02F0F842B2EB816F03D1816E21F001
:101270000041816620682978C26E02F0F842B2EB24
:10128000816F03D1C16E21F00041C1662068816881
:1012900011F0010F72D150F8C03F2A7BDFF8FCC17A
:1012A000296802F018022CFA02FCC1F3130823EAA1
:1012B00008030CEA010C43EA0C030360E968594592
:1012C0006CD177482268DFF8DCC1DFF8DCB18242FC
:1012D000DFF8D8E17648774BDFF8DC8122D1296846
:1012E000614524D0B1EB4C0C38D0A1F1496CBCF174
:1012F000080C35D0A1F1865CBCF1100C32D0DFF8BF
:10130000BCC1614528D071453AD0814230D0994264
:1013100032D06B48814201D16A4831E041452ED13B
:1013200069482DE0B2422AD12968614501D10120E6
:1013300026E0A1F1066CBCF1040C0FD0A1F1496CC0
:10134000BCF1080C0CD0A1F1865CBCF1100C09D0EA
:10135000DFF868C1614507D15C4811E058460FE0ED
:101360005B480DE05B480BE0714509D0814201D13B
:10137000184605E09942D1D1574801E03CE00020F1
:10138000D16903031AD090FAA0F0B0FA80F000BF40
:1013900000F01F0309FA03F00143D161D5F800C042
:1013A000BCF1000F28DA3E4B20684C49DFF8309141
:1013B000984201D0B04203D10A4602E0800EE7E72E
:1013C0004A469268984202F0E07201D0B04209D1D8
:1013D0009D68D6F8088005F0010508F0010845EA87
:1013E000080503E0DAF8085005F001054DB1606D1D
:1013F000012740F020006065002084F85000384646
:1014000084E6384DAC451CD115021AD45045F3D1B1
:10141000984202D0B04200D049468B6842F40000A6
:1014200023F0E07202438A6030492F480968B1FB1B
:10143000F0F04000801C00E0401E00900028FBD12E
:10144000DAE72B4DAC450CD1D5010AD45045D3D1A8
:10145000984202D0B04200D049468B6842F080707A
:101460000EE0244DAC45C7D15502C5D45045C3D17B
:10147000984202D0B04200D049468B6842F48000C6
:1014800023F0E07202438A60B6E7000000210240C8
:101490000000FF47006002580010005CFFFF0F00D3
:1014A0000020024002003004400020190004002AFD
:1014B0000008302E001060320000844B2000F01431
:1014C00000002143000052470000B84F0002B02541
:1014D0008000501D00018021002090360023024032
:1014E00000630258000084CB400D0300C4000020BC
:1014F000000052C70000B8CFF8B54FF00006040056
:101500003546009602D0606D10B107E00120F8BDAD
:10151000204600F005F9A66584F8506020688168CF
:10152000C1F3407119B18168704A1140816020682F
:101530008168C1F3007181B981686D4A114041F041
:10154000805181606C496B480968B1FBF0F0401C28
:1015500000E0401E00900028FBD120688168C1F3A4
:10156000007141B9616D012541F010016165A16D06
:1015700041F00101A16506F01BFD616DC90600D4B3
:1015800020B1606D012540F0100093E0606D20F403
:10159000807040F0020060652068816811F0010FE2
:1015A0001FD1564A564B904201D0984207D19168BC
:1015B0009E6801F0010106F00106314303E0514944
:1015C000896801F0010161B9904201D0984201D1CE
:1015D0004D4800E04D488268616822F47C120A435D
:1015E000826001F019FC41F20301884202D9A0682F
:1015F00010280CD0617D227FA368206B490341EA4B
:10160000024118430843217F01290CD010E0607D7E
:10161000227F216B400340EA024241F01000104358
:1016200040F00C00EFE7218C394A02EB41410843BE
:10163000616A29B1A26A01F47871014342EA0100AA
:101640002168344BCA681A400243CA60206806F019
:10165000AFFC0646206806F0A7FC30431DD1216888
:1016600044F20303267DE26AC86842EA8632984360
:101670001043C86094F8380001281ED02068016922
:1016800021F0010101612068626B016921F0704164
:10169000114301612046FFF7C1F9E0680128206885
:1016A0001CD0016B21F00F010163606D20F002007E
:1016B00040F0010060652846F8BD2068A28F164FF3
:1016C000D4E9101C154E07EB0247A36C026941EAEE
:1016D0000C013B43324019431143D3E7A269016B2C
:1016E000521E21F00F011143DEE70000C0FFFF5F33
:1016F000C0FFFF7F400D0300C40000200020024017
:10170000002102400060025800230240006302589A
:101710000000FEFF03C0F0FF0100FFFF1EF800FC09
:1017200030B587B0044614216846FEF71DFE254AF1
:101730002168254891422BD1234908390A6842F093
:1017400020020A60096801F020010591016841F05A
:1017500004010160016801F004010591016841F094
:1017600002010160006803240025694600F00200C0
:10177000059011208DE83100144801F029FA02206B
:1017800069468DE83100124801F022FA07B030BDF9
:10179000104A9142FAD1016841F0807101600168FC
:1017A00001F080710591016841F004010160006859
:1017B00000F0040005904FF00060014605F03EF98E
:1017C000E4E7000000200240E0440258000802580C
:1017D00000040258006002582DE9F041040003D0D3
:1017E00094F8350018B105E00120BDE8F0812046ED
:1017F00000F044F8A16902204FF0000E84F8350093
:1018000009B1C4F824E020681B4A01681140016056
:10181000D4E90452E168D4E9010C29431043A269D8
:10182000084354F8201B40EA0C001043B4E8E810C9
:101830000A68184328433043384340EA0C001043F9
:10184000086054F8300C343C102808D1A17FA08BDC
:101850002368E27F61F31F4040EA026098612068DC
:101860000121C26842F01E02C260C4F84CE084F854
:1018700035100020B9E7000007F0E0FF70B586B032
:10188000044614216846FEF76FFD374920688842F8
:1018900067D13648016841F001010160006800F03D
:1018A000010005903148001D016841F01001016000
:1018B000016801F010010591016841F0010101602A
:1018C000016801F001010591016841F00401016026
:1018D000016801F004010591016841F0080101600F
:1018E000016801F008010591016841F00201016001
:1018F000006800240D26694600F002000590732060
:10190000009002251A48CDE90154CDE9034601F0C3
:101910005FF950200090CDE9015416486946CDE9A1
:10192000034601F055F9C0200090CDE9015412485A
:101930006946CDE9034601F04BF908200090CDE956
:1019400001540E486946CDE9034601F041F9802073
:101950000090CDE901540A486946CDE9034601F0FB
:1019600037F906B070BD000000000248DC440258A0
:10197000001002580000025800080258000C0258DB
:10198000000402582DE9F84F044601F04BFA00908C
:101990003CB194F83500022806D080216165002012
:1019A000E4E00120BDE8F88FC74DC74EC6491835A1
:1019B00020683036DFF81483DFF814938842DFF8AC
:1019C00014A3DFF814B32ED0A8422CD0B0422AD0F2
:1019D000404528D0484526D0504524D0584522D0EF
:1019E000BD4A183290421ED0BC4A90421BD0BB4A1E
:1019F0001832904217D0B94A3032904213D0B74AC9
:101A0000483290420FD0B54A603290420BD0B34A70
:101A10007832904207D0B14A9032904203D0AF4A18
:101A2000A832904209D1026822F01E0202602068AA
:101A3000426922F08002426103E0026822F00E0255
:101A4000026027688F4238464DD0A8424BD0B04242
:101A500049D0404547D0484545D0504543D05845EA
:101A600041D09D4A183290423DD09C4A90423AD093
:101A70009A4A1832904236D0984A3032904232D048
:101A8000964A483290422ED0944A603290422AD0F0
:101A9000924A7832904226D0904A9032904222D098
:101AA0008E4AA83290421ED08D4A90421BD08C4A5A
:101AB0001432904217D08A4A2832904213D0884A72
:101AC0003C3290420FD0864A503290420BD0844A2A
:101AD0006432904207D0824A7832904203D0804AE2
:101AE0008C32974204D1206E026822F48072026028
:101AF00075492068884228D0A84226D0B04224D018
:101B0000404522D0484520D050451ED058451CD0D5
:101B100071491831884218D07049884215D06F49F0
:101B20001831884211D06D49303188420DD06B494F
:101B30004831884209D069496031884205D06749F7
:101B40007831884201D065499031016821F0010166
:101B500001600EE001F066F90099401A052808D9E5
:101B6000202262650321002084F8351084F83400B7
:101B700017E73868C007EDD1534A01212068904229
:101B80002ED0A8422CD0B0422AD0404528D048457B
:101B900026D0504524D0584522D04F4B1833984278
:101BA0001ED04E4B98421BD04C4B1833984217D046
:101BB0004A4B3033984213D0484B483398420FD0A9
:101BC000464B603398420BD0444B7833984207D051
:101BD000424B9033984203D0404BA833984208D1EF
:101BE00094F85C703F23A06D07F01F07BB40836033
:101BF00007E094F85C30A06D03F01F0301FA03F3D3
:101C00004360206890424DD0A8424BD0B04249D0AA
:101C1000404547D0484545D0504543D0584541D030
:101C20002D4A183290423DD02C4A90423AD02B4A4D
:101C30001832904236D0294A3032904232D0274A68
:101C4000483290422ED0254A603290422AD0234A10
:101C50007832904226D0214A9032904222D01F4AB8
:101C6000A83290421ED01E4A90421BD01C4A143209
:101C7000904217D01A4A2832904213D0184A3C3268
:101C800090420FD0164A503290420BD0144A643220
:101C9000904207D0124A7832904203D0104A8C32D8
:101CA00090420BD1D4E919024260E06E30B1026873
:101CB00022F480720260D4E91C024260002084F8A1
:101CC000351084F834006DE61000024058000240E0
:101CD0007000024088000240A00002401004024050
:101CE000085402582DE9F05F28B190F83510022908
:101CF00004D0802141650120BDE8F09F904C904BBD
:101D00000168183C18338E4ADFF83C92A1428D4C92
:101D1000DFF838E28E4FDFF83CB2DFF83CA28F4D9F
:101D20008F4E31D091422FD099422DD0A1422BD04D
:101D3000494529D0714527D0B94225D0DFF810C2D6
:101D40000CF1180C61451FD0DFF808C2ACF1600C33
:101D5000614519D0DFF8FCC1ACF1480C614513D0E6
:101D6000DFF8F0C1ACF1300C61450DD0DFF8E4C113
:101D7000ACF1180C614507D0594505D0514503D049
:101D8000A94201D0B1422CD1DFF8B4C14FF0040810
:101D900080F83580ACF1180C61451DD091421BD004
:101DA000994219D0A14217D0494515D0714513D099
:101DB000B94211D06648183081420DD0654860386C
:101DC000814209D063484838814205D061483038A3
:101DD000814201D05F481838086820F0010008608F
:101DE000ABE0D1F800C02CF00E08DFF854C1C1F808
:101DF0000080ACF1180C0168614527D0914225D0D4
:101E0000994223D0A14221D049451FD071451DD010
:101E1000B9421BD0DFF838C10CF1180C614515D060
:101E2000DFF830C1ACF1600C61450FD0DFF824C1A0
:101E3000ACF1480C614509D0DFF818C1ACF1300CA9
:101E4000614503D0DFF80CC1ACF1180CD1F800C02B
:101E50002CF0010CC1F800C0DFF8E4804FF0010C59
:101E60000168A8F11808414546D0914244D09942F2
:101E700042D0A14240D049453ED071453CD0B94204
:101E80003AD0334A1832914236D0324A603A9142BF
:101E900032D0304A483A91422ED02E4A303A9142BE
:101EA0002AD02C4A183A914226D0594524D051457F
:101EB00022D0A94220D0B1421ED02A4A91421BD042
:101EC000284A1432914217D0264A2832914213D020
:101ED000244A3C3291420FD0224A503291420BD0D8
:101EE000204A6432914207D01E4A7832914203D090
:101EF0001C4A8C32914218D1016E0A6822F4807219
:101F00000A6090F85C20816D02F01F020CFA02F268
:101F10004A60D0E919124A60C16E31B10A6822F4F0
:101F200080720A60D0E91C124A600022016D80F8BC
:101F300035C080F8342001B188470020DCE600007D
:101F40002800024058000240700002408800024011
:101F5000A00002407004024088040240A004024035
:101F6000B8040240085402582DE9FC5F0446F74EBD
:101F70000020DFF8D88300904FF41652F44808F19F
:101F80001808A56DDFF8C493DFF8C0A3016809F154
:101F9000300920680AF1480AB1FBF2F1B042019120
:101FA0002F68D5F800C0DFF8ACB335D04146884281
:101FB00032D0484530D050452ED058452CD0E54938
:101FC0001831884228D0E3493031884224D0E14991
:101FD0004831884220D0E04988421DD0DE4918317E
:101FE000884219D0DC493031884215D0DA4948316D
:101FF000884211D0DFF860E30EF1600E70450BD01F
:10200000D54A7832904207D0D34B9033984203D0D0
:10201000D149A83188427DD194F85C20082102F092
:102020001F0201FA02F23A424AD0B04232D0404591
:1020300030D048452ED050452CD058452AD0C54ADE
:102040001832904226D0C34A3032904222D0C14A40
:10205000483290421ED0C04A90421BD0BE4A18322D
:10206000904217D0BC4A3032904213D0BA4A48321C
:1020700090420FD0B84A603290420BD0B64A7832C4
:10208000904207D0B44A9032904203D0B24AA8326C
:10209000904203D1026802F0040202E0026802F0FA
:1020A00008026AB1026822F00402026094F85C003F
:1020B00000F01F008140A960606D40F00100606584
:1020C00094F85C00012100F01F008140394240D0AB
:1020D0002068B04234D0404532D0484530D05045D9
:1020E0002ED058452CD09B4A1832904228D0994A7D
:1020F0003032904224D0974A4832904220D0964ABB
:1021000090421DD0944A1832904219D0924A3032EF
:10211000904200E0AFE113D08F4A483290420FD096
:102120008D4A603290420BD08B4A7832904207D071
:10213000894A9032904203D0874AA83290427DD19A
:10214000406910F0800F04D0A960606D40F002007B
:10215000606594F85C00042100F01F008140394262
:102160003ED02068B04232D0404530D048452ED0D5
:1021700050452CD058452AD0764A1832904226D065
:10218000744A3032904222D0724A483290421ED075
:10219000714A90421BD0704A1832904217D06E4A52
:1021A0003032904213D06C4A483290420FD06A4A83
:1021B000603290420BD0684A7832904207D0664A2B
:1021C0009032904203D0644AA83290424ED10068C7
:1021D00010F0020F04D0A960606D40F0040060654B
:1021E00094F85C00102100F01F008140394258D063
:1021F0002068B04234D0404532D0484530D05045B8
:102200002ED058452CD0534A1832904228D0514AEB
:102210003032904224D04F4A4832904220D04E4A29
:1022200090421DD04C4A1832904219D04A4A30325E
:10223000904215D0484A4832904200E014E00FD056
:10224000454A603290420BD0434A7832904207D0E0
:10225000414A9032904203D03F4AA832904207D17F
:10226000006800F0080006E0006872E70068B7E761
:10227000006800F00400A0B1A9602068016849036B
:1022800004D50068000308D5A16C07E00168C90502
:1022900003D4016821F008010160216C09B12046D6
:1022A000884794F85C00202100F01F0081403942EB
:1022B00079D02068B04232D0404530D048452ED049
:1022C00050452CD058452AD0224A1832904226D068
:1022D000204A3032904222D01E4A483290421ED0CC
:1022E0001D4A90421BD01C4A1832904217D01A4AFD
:1022F0003032904213D0184A483290420FD0164ADA
:10230000603290420BD0144A7832904207D0124A81
:102310009032904203D0104AA832904203D1006814
:1023200000F0100002E0006800F00200B0B3A96005
:1023300094F835000428206801680FD049037ED541
:10234000006800032BD4616C2AE0000010000240FA
:10235000C4000020700002401004024021F0160169
:1023600001602068416921F080014161206C08B959
:10237000A06C20B12068016821F00801016094F888
:102380005C303F21012003F01F0300229940A96027
:1023900084F8350084F83420216D65E003E0E16BBA
:1023A00009B120468847606D00287DD0606DC00768
:1023B00059D02068042184F83510B0422BD0404514
:1023C00029D0484527D0504525D0584523D09D4990
:1023D000884220D09B49183188421CD0994930311D
:1023E000884218D09849884215D0974918318842B8
:1023F00011D09549303188420DD0934948318842F7
:1024000009D091496031884205D08F49783188429E
:1024100001D08D499031016821F0010101602068EF
:102420000099019A491C0091914202D80168C9079C
:10243000F6D10068C00710D003200FE0FFE7016865
:10244000C905ACD403680121002223F01003036006
:1024500084F8351084F83420A1E7012084F8350091
:10246000002084F83400E16C00291DD002B0204621
:10247000BDE8F05F0847754988421DD073491431A3
:10248000884219D071492831884215D06F493C31B2
:10249000884211D06D49503188420DD06B4964316A
:1024A000884209D0694900E084E07831884203D04D
:1024B00066498C3188427DD194F85C80042701689C
:1024C00008F01F0807FA08F717EA0C0F009746D024
:1024D0004F0744D500980F04686003D5C8033CD467
:1024E000A16CC1E7880638D42068B0422DD0554988
:1024F0006039884229D0484527D0504525D05845D5
:1025000023D05049884220D04E49183188421CD0EF
:102510004C493031884218D04B49884215D04A493D
:102520001831884211D04849303188420DD046498F
:102530004831884209D0704507D0904205D0984272
:1025400003D04149A831884203D1016821F0080134
:1025500002E0016821F004010160216C84E7022798
:1025600007FA08F717EA0C0F00974ED08F074CD5E3
:1025700000980F04686003D5C80344D4616C73E706
:10258000880640D42068B0422FD02E496039884256
:102590002BD0484529D0504527D0584525D029492A
:1025A000884222D02749183188421ED0254930312F
:1025B000884200E044E018D02349884215D02249DF
:1025C0001831884211D02049303188420DD01E493F
:1025D0004831884209D0704507D0904205D09842D2
:1025E00003D01949A831884203D1016821F01401B0
:1025F00002E0016821F00A010160012184F8351030
:10260000002084F83400E16B2EE7082202FA08F279
:1026100012EA0C0F14D0090712D5016821F00E013F
:10262000016094F85C100120002201F01F0100FA03
:1026300001F16960606584F8350084F8342012E7A0
:10264000BDE8FC9F88000240100402400854025874
:102650002DE9F05F044600F0E5FB002C07467DD035
:10266000E34E022120684FF00308DFF888934FF013
:102670000005DFF884A3B042DFF880B334D0DC4A31
:102680001832904230D048452ED050452CD0584575
:102690002AD0DA4A1832904226D0D84A30329042B4
:1026A00022D0D64A483290421ED0D54A90421BD002
:1026B000D34A1832904217D0D14A3032904213D0C8
:1026C000CF4A483290420FD0CD4A603290420BD070
:1026D000CB4A7832904207D0C94A9032904203D018
:1026E000C74AA83290427DD184F83510B04284F8B0
:1026F00034502ED0BE49183188422AD0484528D0BF
:10270000504526D0584524D0BC491831884220D0A5
:10271000BA49303188421CD0B8494831884218D073
:10272000B749884215D0B6491831884211D0B4490A
:10273000303188420DD0B2494831884209D0B04981
:102740006031884205D0AE497831884201D0AC4929
:102750009031016821F00101016008E027E100BF2C
:1027600000F060FBC01B052801D920211CE1206876
:102770000068C007F4D104F108002168D4E9053CE1
:102780008E4685C809681043D4E907281F43636A49
:1027900038439C4F40EA0C001043394040EA08009F
:1027A000042B40EA010003D1D4E90B121143084382
:1027B000954909686FF30F01B1F1005F0FD36168AC
:1027C000A1F12902052A08D9163A032A05D9083A9F
:1027D000012A02D94F39032901D840F48010CEF8DC
:1027E000000000E023E02068676A4069042F20F0C1
:1027F000070047EA00070DD1D4E90A01074349B1B0
:102800002046FEF737FB28B140206065012184F89F
:102810003510CCE0206847612046FEF749FA94F86D
:102820005C203F2102F01F029140816054E0774A12
:1028300090421BD0754B1433984217D0734B2833FA
:10284000984213D0714B3C3398420FD06F4B5033AA
:1028500098420BD06D4B6433984207D06B4B783362
:10286000984203D0694B8C3398427DD184F835105F
:1028700084F83450664B0168A26801EA030E402ACE
:1028800073D0802A72D00022D4E90378D4E90531CC
:1028900042EAD70242EAD8085C4AD4E9077C48EA0F
:1028A000D30848EAD10141EAD701524241EA1C115A
:1028B000142341EA0E01016020681044B0FBF3F0DC
:1028C0008000E0652046FEF7F3F994F85C200121D2
:1028D00002F01F02914041602068B04257D0444945
:1028E0001831884253D0484551D050454FD05845B3
:1028F0004DD042491831884249D040493031884250
:1029000045D03E494831884241D03D4988423ED079
:102910003B49183188423AD039493031884236D063
:1029200037494831884232D03549603188422ED00B
:102930003349783188422AD031499031884226D0B3
:102940002F49A831884222D0304988421FD02F49D0
:10295000143188421BD02D492831884217D02B4989
:102960003C31884213D002E01DE017E018E027490F
:10297000503188420BD025496431884207D0234921
:102980007831884203D021498C31884229D12046B0
:10299000FEF7E8F9A06880280CD00CE0102273E75D
:1029A0004FF4804270E74021616584F83580012052
:1029B000BDE8F09F6560216E20790860D4E91901B7
:1029C00041606068401E072808D82046FEF718FAC4
:1029D000E06E0560D4E91C01416002E0E566256710
:1029E00065670120656584F835000020E0E7000098
:1029F00010000240400002405800024070000240B7
:102A0000100402403F8010FE0010005C0854025881
:102A10000F00FEFF70B5044600F004FA0546601C86
:102A200002D004480078044400F0FCF9401BA042A6
:102A3000FAD370BDB8000020704700002DE9F041C6
:102A4000604D4FF480374FF0FF38286900265E4C08
:102A5000C043C00311D42078012861D02078022817
:102A600079D0072877D0032879D0042805D0052805
:102A700003D0062801D026706F61D5F81001C0433D
:102A8000C00313D4207804286BD0207805287BD08D
:102A9000072879D0062878D0012807D0022805D049
:102AA000032803D084F80060C5F81471286910F475
:102AB000DC000ED0A1690143A16168612078012882
:102AC00073D0022875D0072873D02069267000F0D3
:102AD0007DF8D5F8100110F4DC0011D0A16940F0A8
:102AE00000421143A161C5F814012078042862D086
:102AF000052864D0072862D02069267000F066F8A7
:102B0000207800280AD1E86820F4DE00E860D5F8D3
:102B10000C0120F4DE00C5F80C012675BDE8F0813B
:102B20006068401E6060606870B1E068FFF784FF15
:102B30006F61E068401CE060E068A2680121FEF778
:102B4000C7F99AE707E00AE0C4F80C802670E0684D
:102B5000FFF772FF90E70120FFF76EFF8BE7206918
:102B6000FAE76068401E6060606878B1E068FFF76F
:102B700063FFC5F81471E068401CE060E068A2687B
:102B80000221FEF7A5F991E707E00CE0C4F80C80FC
:102B90002670E068FFF750FF86E70220FFF74CFF42
:102BA00080E702E005E02069F8E7E068C4F80C80FF
:102BB0008CE701208AE7E068C4F80C809DE70220DA
:102BC0009BE70000002000526C820020704700004C
:102BD0002DE9F84F03247D4D00234FF001094FF0FC
:102BE000B04B4FF00F0AE9E009FA03F73A4076D00C
:102BF0000E7906F00306012E01D0022E18D1D0F86E
:102C000008C04FEA430ECE6804FA0EF82CEA080C0E
:102C100006FA0EF646EA0C068660D0F804C00E7975
:102C20002CEA070CC6F300169E4046EA0C064660E6
:102C30000E79F643B6070BD0C6684FEA43088F6893
:102C400004FA08FC26EA0C0607FA08F73743C760BF
:102C50000E7906F00306022E12D1DE080F694FEA44
:102C6000437C00EB8606B646366A4FEADC6C0AFA0D
:102C70000CF807FA0CF726EA08063743CEF820705E
:102C80000F7906684FEA430807F0030704FA08FCC7
:102C900007FA08F726EA0C06374307604E6816F471
:102CA000403F1CD04A4E376847F00207376036680D
:102CB0009F0706F00206009623F0030606F1B046D1
:102CC000B6463F0FD6F80864DFF808810AFA07FC19
:102CD000404526EA0C0603D14FF0000C41E06CE0C1
:102CE000DFF8F4C0604502D14FF0010C39E0DFF8A5
:102CF000ECC0604502D14FF0020C32E0DFF8E0C0DA
:102D0000604502D14FF0030C2BE0DFF8D8C06045DE
:102D100002D14FF0040C24E0DFF8CCC0604502D1B2
:102D20004FF0050C1DE0DFF8C4C0604502D14FF044
:102D3000060C16E0DFF8B8C0604502D14FF0070C72
:102D40000FE0DFF8B0C0604502D14FF0080C08E09A
:102D5000DFF8A4C0604502D14FF0090C01E04FF04C
:102D60000A0C0CFA07FC4CEA060CCEF808C44F68B3
:102D7000DBF80060FF0226EA020600D516435F4634
:102D8000CBF80060D1F804C0DBF804605FEA8C2C5B
:102D900026EA020600D516437E606E684F6826EA72
:102DA0000206BF0300D516436E602E684F6826EA00
:102DB0000206FF0300D516432E605B1C0A6832FA38
:102DC00003F67FF411AFBDE8F88F000080000058D3
:102DD000F444025800000258000402580008025847
:102DE000000C025800100258001402580018025833
:102DF000001C02580020025800240258426921EAAF
:102E000002030A4043EA0241816170470AB18161CD
:102E100070470904FBE7000001480068000C704798
:102E20000010005C0148806870470000B800002076
:102E3000024881680278114481607047B800002020
:102E4000032010B500F0DCF802F028F80F4A104912
:102E500014681368C4F3032203F00F038A5CC95C8F
:102E600002F01F0201F01F01D0400A4A20FA01F1CE
:102E70001160094908600F2000F010F808B1012026
:102E800010BD00F079F8002010BD00001844025871
:102E9000E61E0308C8000020C400002070B50D4DD8
:102EA00004462878A0B14FF47A71B1FBF0F00A49DA
:102EB0000968B1FBF0F003F0C9FD48B9102C07D246
:102EC00000222146501E00F07BF800206C6070BD8F
:102ED000012070BDB8000020C4000020154BF0B5E3
:102EE000083B427813491A600B680A1F23F001035C
:102EF0000B6043681360057BC67A827A437B2D079B
:102F0000847B45EA0665C77B90F809C0067A90F88D
:102F100000E045EAC24040EA834040EA444040EADB
:102F2000074040EA0C2040EA460040EA0E000860F4
:102F3000F0BD0000A0ED00E0BFF35F8F044800216A
:102F40000368034A23F480330360703211607047D2
:102F500024ED00E0074A40F001000649703210609D
:102F6000086840F480300860BFF34F8FBFF36F8F65
:102F70007047000024ED00E0094808B5016841F001
:102F80000201016000680022114600F0020000907A
:102F9000042000F015F8BDE80840042000F002B855
:102FA000F4440258002809DB410900F01F0289009F
:102FB000012001F1E0219040C1F8000170470000BC
:102FC0000E4BF0B41B680D46C3F30223C3F1070692
:102FD000042E00D90426191D072901D2002300E080
:102FE000DB1E012404FA06F19C40491E2940641EA0
:102FF000994014402143F0BC09F0BFB90CED00E04A
:10300000064900F0070210B54FF6FF040868044BAC
:10301000204040EA02201843086010BD0CED00E09B
:103020000000FA0501680123C0F8D834002280F8B6
:10303000CC248869044A40F000608861486D1043E0
:1030400048650020704700000300001070470068CA
:10305000416200207047F0B503685D6A39B19F6A2C
:103060004C1E00204FF4827605EB17450BE045EA35
:103070000240986210E0471C06EB800053F800C045
:10308000F8B205EB1C45A042F5D34FF4807000EB7D
:10309000810045EA02421A500020F0BDD0F8E00459
:1030A00008F0B9B801EBC10200EB8202D0F8E004ED
:1030B000126A08F00CB801EBC10200EB8202D0F8F2
:1030C000E004D2F8602208F05EB8D0F8E00408F01E
:1030D000A4B80A0601F00F0101EBC10100EB810168
:1030E00001D5143101E001F51571006808F090BFB9
:1030F00001F00F020B0670B502EBC20104464FF05F
:1031000001004FF0000504EB810102D54875143130
:1031100003E081F8555201F515710A7094F8942472
:10312000012A08D084F89404206808F08FFC00205D
:1031300084F8945470BD022070BD70B502790446C5
:1031400001F00F00904201D9012070BD01F00F0283
:103150004FF000050B0602EBC2014FF0010204EB39
:10316000810102D54A75143103E081F8555201F509
:1031700015718D70087094F89404012808D084F8B3
:103180009424206808F0CCFD002084F8945470BD8D
:10319000022070BD01F00F0101EBC10100EB8100C5
:1031A000D0F8680270472DE9F04101F00F0604469F
:1031B0000D064FF0010006EBC6014FF0000504EBD1
:1031C000810102D54875143103E081F8555201F5AB
:1031D0001571C2F30A024F780B718A600E7007B145
:1031E0004E83022B00D14D7194F89424012A09D00A
:1031F00084F89404206808F071FB284684F89454FD
:10320000BDE8F0810220FBE770B501F00F05002456
:1032100005EBC50100EB810101F5187181E81C0087
:1032200001F80B4C01F80C5D8379012B00D1CA61C8
:103230008279006808F0CCFD002070BD70B50D46A5
:103240000179044605F00F00884201D9012070BDC4
:1032500029064FF000064FF0010206D500EBC00131
:1032600004EB81014A75143107E005EBC50104EB5D
:10327000810181F8556201F515718A70087094F822
:103280009404012807D084F89424206808F074FD81
:10329000280702D007E0022070BDA17904F29C4209
:1032A000206808F011FD002084F8946470BD70B5AA
:1032B00001F00F04002504EBC401012600EB81019D
:1032C000203181E82C0001F80B6C01F80C4D83795A
:1032D000012B00D1CA618279006808F079FD0020D5
:1032E00070BD00002DE9FC5F05680446284608F023
:1032F0002BFF00287ED1206808F052FF002879D0EB
:10330000D5F80808C0F30D20C4F8D404206808F0EC
:1033100047FF800704D52068416901F0020141613F
:10332000206808F03DFFC10604F29C40009035D5AE
:103330002068816921F0100181612F6A07F00F0177
:10334000C7F3434001EBC101022804EB810606F5F7
:10335000157602D0062812D01BE047F6F07007421F
:1033600017D0C7F30A12F1681746284608F01CFF69
:103370007169F068394471613844F06009E000997E
:103380000822284608F010FF7069C7F30A110844A4
:1033900070612068816941F010018161206808F046
:1033A000FFFE00034FF0080B4FF0000A4FF0010939
:1033B0007CD52068002608F0D2FE074674E0F807A6
:1033C00070D02068F1B208F0E3FE8046C00707D055
:1033D00005EB4611C1F8089B3146204605F0BCF8C4
:1033E0005FEA087024D505EB4611C1F808BBFA491D
:1033F000206800E03EE2026C00EB461001928A4237
:10340000D0F8081B05D9090403D54FF40041C0F8D2
:10341000081B204600F01FFBEF490198884207D99E
:10342000A079012804D120680121009A08F04CFC01
:103430005FEAC86004D505EB46111020C1F8080BFF
:103440005FEA88701DD56869000605D5D5F80408BF
:1034500040F48061C5F8041806EBC60004EB800058
:1034600090F8571200F51570012905D180F803A0D6
:103470002046F1B200F004FA05EB46110220C1F833
:10348000080B5FEA886004D505EB46112020C1F8DF
:10349000080B5FEA884005D505EB46114FF4005054
:1034A000C1F8080B7F08761C002F88D1206808F02F
:1034B00077FE40036ED5206808F04AFE00260746D6
:1034C00066E0F80762D02068F1B208F04FFE80464F
:1034D000C00723D0D5F8342806F00F0C05EB4613AF
:1034E00009FA0CF08243C5F83428C3F80899A0798A
:1034F00001280FD106EBC60004EB8000D0E90721BC
:103500001144016236B9606A20B920680121009A2D
:1035100008F0DAFB2046F1B2FFF7C4FD5FEA08705D
:1035200003D505EB4611C1F808B95FEAC86004D5B8
:1035300005EB46111020C1F808095FEA486004D580
:1035400005EB46114020C1F808095FEA887016D5DE
:103550003146284608F0CDFD06EBC60004EB80009E
:10356000C17D1430012905D180F803A02046F1B2B5
:1035700000F082F905EB46110220C1F808095FEA64
:10358000086003D53146204605F04CF87F08761CCC
:10359000002F96D1206808F003FE002811DAD5F834
:1035A000040820F00101C5F8041894F8CC0401289F
:1035B0003BD0204600F034FA2068416901F0004118
:1035C0004161206808F0ECFD00050BD5D5F808082E
:1035D000C00702D0204600F067FA2068416901F474
:1035E00000614161206808F0DBFD00010AD5206818
:1035F000416901F00061416194F8CC04E0B12046DA
:1036000000F052FA206808F0CBFDC00472D5D5F85E
:10361000040820F00100C5F804082068102108F013
:1036200068FD00214FF67F322DE00021204684F80E
:10363000CCA4FFF70BFDBFE784F8CC942068406D65
:103640000121C0F38300C4F8D0042046FFF7FEFC3C
:10365000D8E700BF05EB4110C0F80829D0F80039C1
:1036600023F40013C0F80039C0F8082BD0F8003B51
:1036700023F40013C0F8003BD0F8003B43F0006394
:10368000C0F8003B491C20798842E3D8D5F81C08D3
:1036900040F00111C5F81C18E07B68B1D5F884082A
:1036A00040F00B01C5F88418D5F8440840F00B0130
:1036B0002846C5F844180DE0D5F8140842F22B014D
:1036C0000843C5F81408D5F8100840F00B01284647
:1036D000C5F81018D0F8000820F4FE61C5F80018ED
:1036E000A1792068009A08F0EFFA2068416901F496
:1036F00080514161206808F053FD800416D5206890
:1037000008F02CF9206808F012FDE07101F080FB50
:1037100023680146E279184608F0A6FD204600F02D
:1037200069F92068416901F400514161206808F09D
:1037300037FD000707D5204600F076F9206841697B
:1037400001F008014161206808F02AFD000615D546
:10375000A869012620F08001A9610CE006EBC600F3
:1037600004EB800090F85702012803D12046F1B203
:10377000FFF7AFFC761C2079B042EFD8206808F044
:103780000FFDC0021FD501264F4614E006EBC60010
:1037900005EB461304EB8001D3F800090A7E012AE9
:1037A00008D1002806DAF0B2CF7540F0800120463B
:1037B000FFF78FFC761C2079B042E7D8206841697A
:1037C00001F480114161206808F0EAFC800234D5E0
:1037D00001204A4629E000000A30544F00EBC003A4
:1037E00005EB401604EB8301D6F8006B91F85832D4
:1037F000012B19D1002E17DA94F8D434C6F3004601
:1038000003F00103B3420FD181F85722A96941F0B7
:103810008003AB616969090606D4D5F8040840F451
:103820000070C5F8040803E0401C21798142D5D816
:103830002068416901F400114161206808F0B0FC82
:10384000400007D52046FFF729FC2068416901F0B8
:1038500080414161206808F0A3FC40070AD5206838
:103860004568680702D52046FFF72FFC20684168AD
:1038700029434160BDE8FC9FD0F8E00407F023BD78
:10388000D0F8E00407F033BDF8B5040004D094F894
:103890009504002510B106E00120F8BD204684F80B
:1038A000945400F057F8032084F89504206808F039
:1038B00005FA207C8DF8000094E80F0008F05CF811
:1038C0000226B0BB2068002108F08EFC88BB0020D7
:1038D00001270CE000EBC001421C04EB81014F7595
:1038E0000D76CD610D624D620875C885D0B2217923
:1038F0008142EFD8002011E000EBC001421C04EB34
:10390000810181F8555281F85852C1F85C52C1F8D2
:103910006052C1F8645281F85402D0B221798142D8
:10392000EAD8207C8DF8000094E80F0008F010F928
:1039300010B184F89564AFE7207B657484F89574C2
:10394000012802D12046FFF76DFB206808F0F2F84D
:103950000020F8BD10B5B6B00446142130A8FCF71D
:1039600003FDC0216846FCF7FFFC1F492068884220
:1039700038D100204FF480214FF440122292CDE93B
:103980000010684600F040FC08B1FDF79EFA00F018
:10399000CDF81648016841F00101016000680A2372
:1039A000022200F00100359000204FF4C051309108
:1039B00030A9CDE93120CDE933030D48FFF708F9EF
:1039C0000A480838016841F000610160006800227F
:1039D000114600F0006035906520FFF7F1FA652090
:1039E000FFF7E0FA36B010BD00000840E04402588E
:1039F0000000025870B50446C079012570B1022854
:103A000001D0FDF762FAD4F8E004294607F0DEFCA5
:103A1000D4F8E004BDE8704007F092BC0025F2E75E
:103A2000D0F8E00407F0BBBCD0F8E00407F0C1BC5C
:103A300010B5044690F8940401280AD0012061745E
:103A400084F89404206808F0FEFB002084F89404B5
:103A500010BD022010BDD0F8E02400F29C411046B9
:103A600007F0C0BC10B590F8941404460068012912
:103A700009D0012184F89414C168490609D5617BF5
:103A8000012902D005E0022010BD816B41F4803194
:103A90008163206808F00BFB206808F03DF80020E7
:103AA00084F8940410BD000010B50446D0F8E0047A
:103AB00007F0DAFC2068D0F8001E41F00101C0F8E0
:103AC000001EE07A002804D00248016841F0060197
:103AD000016010BD10ED00E0134970B50A68D243D3
:103AE000520705D5096801F00701814213D118E09A
:103AF0000A6822F0070202430A60FFF793F90A4DB1
:103B00004FF47A760446083D07E000BFFFF78AF9D4
:103B1000001BB04201D9012070BD2868C043800459
:103B2000F4D4002070BD00000C480258024801681F
:103B300041F08071016070470C48025802480168EA
:103B400041F48071016070470048025810B501F0DF
:103B50005FF905490968054AC1F30211515C01F09A
:103B60001F01C84010BD000020440258E61E030893
:103B70004A4930B5494C0B1D0A680C3409681D6868
:103B8000246802F0030305F00102C1F30511C4F338
:103B9000CC04002914FB02F200EE102AF8EE400AD1
:103BA00076D0414A9FED3E1ADFED3E1AB7EE000A8D
:103BB00023B1012B5AD0022B18D15CE0374C283CA2
:103BC00023689B0612D5394B246801EE901A1168C0
:103BD000C4F3C104F8EE612AE34001EE903AC1F368
:103BE0000801F8EE611A81EEA22A07E002EE101A2F
:103BF0001168F8EE422A81EEA22A45E001EE901A01
:103C00001168F8EE611A40EE811A71EE800A62EED8
:103C1000200AC1F3462101EE101AB8EE411A31EE26
:103C2000001AC0EE811ABCEEE11A80ED001A11688C
:103C3000C1F3064101EE101AB8EE411A31EE001A36
:103C4000C0EE811ABCEEE11A80ED011A1168C1F3D1
:103C5000066101EE101AB8EE411A31EE000A80EE4C
:103C6000801ABCEEC10A80ED020A30BD01EE901A46
:103C7000DFED0F2A03E001EE901ADFED0E2A116846
:103C8000F8EE611A82EEA12AC1F30801B6E7FFE758
:103C9000002101604160816030BD0000284402586D
:103CA000000000390024744C304402580090D003C6
:103CB0000024744A20BCBE4B494930B5484C0B1D0A
:103CC0000A68143409681D68246802F00303C5F308
:103CD0000012C1F30531C4F3CC04002914FB02F235
:103CE00000EE102AF8EE400A75D03F4A9FED3D1ACB
:103CF000B7EE000A6BB1DFED3D1A012B01D0022BAC
:103D000064D002EE101A1168F8EE422A81EEA22A5F
:103D100021E0334C283C23689B0612D5344B2468A1
:103D200001EE901A1168C4F3C104F8EE612AE34071
:103D300001EE903AC1F30801F8EE611A81EEA22A71
:103D40000BE001EE901ADFED2B2A00BFF8EE611AAE
:103D5000116882EEA12AC1F3080101EE901A1168E0
:103D6000F8EE611A40EE811A71EE800A62EE200AC6
:103D7000C1F3462101EE101AB8EE411A31EE001AD5
:103D8000C0EE811ABCEEE11A80ED001A1168C1F391
:103D9000064101EE101AB8EE411A31EE001AC0EEDB
:103DA000811ABCEEE11A80ED011A1168C1F30661B7
:103DB00001EE101AB8EE411A31EE000A80EE801AB8
:103DC000BCEEC10A80ED020A30BD04E001EE901A9B
:103DD000DFED092ABAE70021016041608160F3E765
:103DE0002844025800000039384402580024744A1C
:103DF0000090D0030024744C20BCBE4B494930B520
:103E0000484C0B1D0A681C3409681D68246802F0C0
:103E10000303C5F30022C1F30551C4F3CC04002908
:103E200014FB02F200EE102AF8EE400A75D03F4A69
:103E30009FED3D1AB7EE000A6BB1DFED3D1A012B85
:103E400001D0022B64D002EE101A1168F8EE422A5B
:103E500081EEA22A21E0334C283C23689B0612D530
:103E6000344B246801EE901A1168C4F3C104F8EED3
:103E7000612AE34001EE903AC1F30801F8EE611ABD
:103E800081EEA22A0BE001EE901ADFED2B2A00BF93
:103E9000F8EE611A116882EEA12AC1F3080101EE61
:103EA000901A1168F8EE611A40EE811A71EE800ADC
:103EB00062EE200AC1F3462101EE101AB8EE411A53
:103EC00031EE001AC0EE811ABCEEE11A80ED001A44
:103ED0001168C1F3064101EE101AB8EE411A31EE35
:103EE000001AC0EE811ABCEEE11A80ED011A1168C9
:103EF000C1F3066101EE101AB8EE411A31EE000A64
:103F000080EE801ABCEEC10A80ED020A30BD04E0EA
:103F100001EE901ADFED092ABAE700210160416045
:103F20008160F3E7284402580000003940440258F9
:103F30000024744A0090D0030024744C20BCBE4B73
:103F40002DE9F04FAC4A0546DFF8A8A280F4807056
:103F5000DFF8AC9289B01311AA4C0843A748AAF124
:103F600004064FF0805C4FF000582CD085F40077A9
:103F70000F4357D0DFF87CB285F480670F430BF115
:103F8000080B61D085F400670F4374D085F4805727
:103F90000F436ED085F400570F434FF480394FF430
:103FA000003E67D085F400270F4371D085F4803739
:103FB0000F436ED085F480460E436BD085F40042EB
:103FC0000A4368D02AE0DAF8001001F00701052959
:103FD00024D2DFE801F075BC7D25B10006A8FFF70B
:103FE000C7FD079809B0BDE8F08F6846FFF764FE8B
:103FF0000098F7E703A8FFF701FF0398F2E72068AE
:10400000C0F3C10022FA00F0ECE72268D20571D5B6
:1040100061456FD11846E5E74145E3D00020E1E76F
:104020004846DFE7DAF8001001F4E07180294FD04C
:1040300004DC002944D04029F0D188E0C029EFD029
:10404000B1F5807FEAD177E0DBF8001001F4600180
:10405000B1F5800F3CD004DC91B3B1F5001FDDD188
:1040600075E0B1F5C00FDBD0B1F5000FD6D163E03C
:1040700001E018E030E0DBF8001001F0E061B1F1A0
:10408000007F25D008DCD9B1B1F1807FC6D15EE0D8
:1040900049E06CE079E09CE0B1F1407FC0D0B1F143
:1040A000806FBBD148E0DAF8001001F4E041B1F5CF
:1040B000005F0DD005DC19B1B1F5805FAED146E0EF
:1040C00094E0B1F5405FABD0B1F5804FA6D133E0BD
:1040D00020688000A2D58DE7DAF8001001F4E02115
:1040E000B1F5403F6CD006DC61B149457AD07145ED
:1040F00094D157E037E0B1F5802F65D0B1F5A02F0E
:104100008CD10CE000F0A6FE6CE76846FFF7D4FD0A
:10411000019867E703A8FFF771FE049862E721683A
:104120008903F1D47AE7DBF8001011F440310ED0A6
:10413000494510D07145F5D13168256801F04051ED
:104140006D077FF562AF00297FF45FAF57E7206806
:104150000001E7D549E720688000E3D503A8FFF711
:104160004DFE05983EE722689203DBD554E73068A0
:1041700010F480303AD04845D4D120680001D1D520
:104180006846FFF799FD02982CE7DBF8001001F074
:10419000E041B1F1405F13D008DC71B1614521D03D
:1041A0004145BFD120688000B4D437E7B1F1804FDA
:1041B0000AD0B1F1A04FB2D030E7FFF7C7FC11E74A
:1041C00020684007AED51AE72068C005AAD521E7C8
:1041D00008E0DAF8001011F04051A0D0614505D098
:1041E00041459FD1206800018FD417E720688001E6
:1041F00098D5F3E6504402580090D00340787D01F2
:104200000080BB00004402582DE9FE4F0546DFF850
:10421000E48350F8081B0024F64FC943019005F1D0
:104220002800264608F12408009008011DD4A86E35
:1042300050B1B0F5801F0CD0B0F5001F0ED0B0F516
:10424000401F1ED001240FE0386840F40030386071
:1042500017E00198022104F059FA03E000980221C6
:1042600004F0E4FA04000CD026462888C043C005B8
:1042700023D4A86D05281ED2DFE800F00C11161B10
:104280001B00AA6ED8F8001021F440111143C8F8A1
:104290000010EAE7386840F40030386009E001981F
:1042A000002104F033FA03E00098002104F0BEFA84
:1042B000044674B100E0012426462888C0438005E6
:1042C00028D4E86D80281ED00CDC90B140280ED197
:1042D00014E0AA6DD8F8001021F007011143C8F8C6
:1042E0000010EAE7C02813D0B0F5807F10D0012479
:1042F0000FE0386840F40030386009E00198002190
:1043000004F004FA03E00098002104F08FFA044658
:104310009CB126462888DFF8DC92C04309F12C09BD
:1043200040052CD4D5F8A800B0F5800F20D00DDCC6
:10433000A0B1B0F5001F0FD115E0EA6DD8F800105C
:1043400021F4E0711143C8F80010E3E7B0F5C00FA5
:1043500013D0B0F5000F10D001240FE0386840F4FE
:104360000030386009E00198002104F0CFF903E043
:104370000098002104F05AFA04467CB126462888A9
:10438000C04300052DD4D5F8AC00B0F1007F21D09A
:104390000EDCA8B1B0F1807F10D116E0D5F8A820CE
:1043A000D9F8001021F460011143C9F80010E6E7C4
:1043B000B0F1407F13D0B0F1806F10D001240FE036
:1043C000386840F40030386009E00198002104F0BA
:1043D0009DF903E00098002104F028FA044674B126
:1043E00026462868C04380011FD4E86CD8B1102845
:1043F0000FD0202812D0302815D0012414E0D5F891
:10440000AC20D9F8001021F0E0611143C9F8001088
:10441000E7E7386840F40030386004E00198022192
:1044200004F074F9044674B126462888C043C004D9
:104430002BD4286EB0F5005F20D00DDCA0B1B0F514
:10444000805F0FD115E06B48EA6C2030016821F0E5
:10445000300111430160E8E7B0F5405F13D0B0F5DB
:10446000804F10D001240FE0386840F400303860ED
:1044700009E00198002104F049F903E000980021C7
:1044800004F0D4F904468CB126462888C043800441
:1044900029D4686EB0F5403F23D010DC08B3B0F5E6
:1044A000803F14D0B0F5003F0FD115E02A6ED8F848
:1044B000001021F4E0411143C8F80010E5E7B0F521
:1044C000802F0ED0B0F5A02F0BD001240AE0019868
:1044D000012104F01BF903E00098012104F0A6F982
:1044E000044694B126462888C04340042AD4D5F80F
:1044F000B000B0F1405F23D010DC08B3B0F1805FB2
:1045000014D0B0F1005F0FD115E06A6ED8F800103A
:1045100021F4E0211143C8F80010E4E7B0F1804F26
:104520000ED0B0F1A04F0BD001240AE00198012178
:1045300004F0ECF803E00098012104F077F9044658
:1045400074B126462888C04300041FD4286FD8B110
:10455000B0F1805F0ED0B0F1005F10D0012414E004
:10456000D5F8B020D9F8001021F0E0411143C9F886
:104570000010E7E7386840F40030386004E0019844
:10458000012104F0C3F8044674B126462868C043EC
:10459000C0011ED4A86CD0B101280ED0022811D0C1
:1045A000032814D0012413E02A6FD8F8001021F05A
:1045B00040511143C8F80010E8E7386840F4003073
:1045C000386004E00198022104F0A0F80446ACB180
:1045D00026462868DFF81CB0C043ABF11C0B400234
:1045E00052D40548016841F480710160FEF71AFC5D
:1045F000824611E02C44025800480258FA48AA6C3E
:10460000016821F0030111430160E2E7FEF70AFCB3
:10461000A0EB0A00642835D8F4480068C005F5D539
:104620008CBBDFF8C4A3B5F8B4100AF1240ADAF899
:10463000000001F4407100F44070884211D0DAF8B3
:104640000010DAF8002021F4407142F48032CAF8F8
:104650000020DAF8002022F48032CAF80020CAF8DC
:104660000010D5F8B400B0F5807F1AD1FEF7DAFB60
:10467000029012E0FEF7D6FB0299411A41F288300F
:1046800081420AD9032426462878DFF85CA3C04378
:104690000AF1080AC00721D03CE0DAF800008007E0
:1046A000E8D5D5F8B410C1F30120032858460DD041
:1046B000016821F47C510160B5F8B420DAF80010EB
:1046C000C2F30B021143CAF80010DDE7C84A0368C1
:1046D00002EA111223F47C511143ECE7E86F182829
:1046E00016D005DCA0B1082808D0102804D10AE0B3
:1046F00020280DD028280BD001240AE001980121A0
:1047000004F004F803E00098012104F08FF8044657
:1047100064B126462878C04380071ED4A86F0628B7
:1047200019D2DFE800F0160C11161616EA6FDAF847
:10473000001021F038011143CAF80010EAE701988F
:10474000012103F0E3FF03E00098012104F06EF87B
:1047500004467CB100E0012426462878C043400787
:104760001FD4D5F89400062819D2DFE800F0160C03
:1047700011161616AA6FDAF8001021F0070111437E
:10478000CAF80010E9E70198012103F0BFFF03E038
:104790000098012104F04AF80446A4B100E0012485
:1047A00026462878C04380062BD4D5F89000B0F177
:1047B000405F24D011DC10B3B0F1805F15D0B0F1B0
:1047C000005F10D116E0D5F89420D9F8001021F040
:1047D00007011143C9F80010E3E7B0F1804F0ED094
:1047E000B0F1A04F0BD001240AE00198002103F0A2
:1047F0008DFF03E00098022104F018F8044694B1FC
:1048000026462878C04340062BD4D5F89C00B0F546
:10481000406F24D011DC10B3B0F5806F15D0B0F527
:10482000006F10D116E0D5F89020DAF8001021F0D2
:10483000E0411143CAF80010E3E7B0F5805F0ED005
:10484000B0F5A05F0BD001240AE00198002103F02D
:104850005DFF03E00098022103F0E8FF044694B1F5
:1048600026462878C04300062BD4D5F8A000B0F522
:10487000C04F24D011DC10B3B0F5005F15D0B0F5F7
:10488000804F10D116E0D5F89C20D9F8001021F403
:10489000E0511143C9F80010E3E7B0F5004F0ED026
:1048A000B0F5204F0BD001240AE00198002103F05D
:1048B0002DFF03E00098022103F0B8FF044654B135
:1048C00026462878C04300071ED4D5F88400B0F5EA
:1048D000805F0AD00FE0D5F8A020D9F8001021F4AD
:1048E00060411143C9F80010EBE70098022103F082
:1048F0009DFF00B10126D5F88420DAF8001021F4DC
:1049000040511143CAF800102878C043C00613D4A0
:10491000D5F89800B0F5807F05D10098022103F00A
:1049200085FF00B10126D5F89820D9F8001021F4B0
:1049300040711143C9F800102868C043000316D421
:10494000D5F8A40038B1B0F5803F09D0B0F5003FEC
:104950000BD001240AE00198002103F0D7FE03E008
:104960000098022103F062FF04468CB126462868B5
:10497000C043400322D4D5F88800B0F5801F11D081
:10498000B0F5001F13D0B0F5401F15D0012414E07E
:10499000D5F8A420D9F8001021F440311143C9F80A
:1049A0000010E4E7386840F40030386004E0009814
:1049B000012103F03BFF04465CB126462868C04352
:1049C000C00323D4286DA8B1B0F5803F17D00124CF
:1049D0001BE0D5F88820DAF8001021F440111143CB
:1049E000CAF80010EAE700004C4402580048025898
:1049F000CFFFFF00386840F40030386004E00198D1
:104A0000022103F083FE0446E4B126462868C04331
:104A1000800005D40098022103F008FF00B10126B0
:104A20002868C04380031BD4D5F88000B0B1B0F52E
:104A3000807F0FD0B0F5007F10D0B0F5407F0DD053
:104A400001240CE05A482A6D016821F48031114399
:104A50000160DBE7386840F400303860ECB326468C
:104A60002868C043C00207D46A6FD8F8001021F04C
:104A700000411143C8F800102868C043C00008D4A2
:104A8000D5F8B820DBF8001021F480411143CBF8B1
:104A900000102868C043800207D4EA6ED8F80010DE
:104AA00021F080711143C8F800102868C04340000D
:104AB0000CD4DBF8001021F40041CBF80010DBF837
:104AC0000010D5F8BC201143CBF800102868C04373
:104AD00008D437486A6D016800E018E021F04051C1
:104AE000114301602868C043000208D4D5F88C2027
:104AF000DAF8001021F440011143CAF800102879B7
:104B00000024C04300F0010020430AD00FE0D5F894
:104B10008020DAF8001021F440711143CAF8001027
:104B20009EE70198002103F0F1FD00B106462879C7
:104B3000C04300F00200204305D10198012103F099
:104B4000E5FD00B106462879C04300F0040020438B
:104B500005D10198022103F0D9FD00B1064628795C
:104B6000C04300F00800204305D10098002103F065
:104B70005DFE00B106462879C04300F010002043D6
:104B800005D10098012103F051FE00B106462879B5
:104B9000C04300F02000044304D10098022103F038
:104BA00045FE00B916B10120BDE8FE8F0020FBE7ED
:104BB0004C4402582DE9F05F04000F467ED0DFF828
:104BC0003882D8F8000000F00F00B8420CD2D8F8B4
:104BD000001021F00F013943C8F80010D8F8000088
:104BE00000F00F00B84269D12078844D40070AD503
:104BF0002069296801F07001884204D9296821F0F0
:104C000070010143296020787C4E361D00070AD5CB
:104C10006069316801F07001884204D9316821F07F
:104C20007001014331602078C0060AD5A06931685F
:104C300001F4E061884204D9316821F4E061014364
:104C400031602078DFF8B4B180060BF1080B0CD589
:104C5000E1695846DBF8002002F07002914204D965
:104C6000026822F070020A430260207880070AD5A9
:104C7000E068296801F00F01884204D9296821F011
:104C80000F01014329602078C0073ED05B49A2682C
:104C90002868183920F47060104328606068022882
:104CA00018D0032819D00968012819D0490700290C
:104CB0004ADADFF848A1AAF1080A00E044E0DAF88D
:104CC000002022F007020243CAF80020FEF7AAF8EB
:104CD000814612E009688903E9E709688901E6E786
:104CE000C905E4E7FEF79EF8A0EB090141F2883020
:104CF000814202D90320BDE8F09F6168DAF8000024
:104D000000F03800B0EBC10FECD1207880070AD555
:104D1000E068296801F00F01884204D2296821F077
:104D20000F0101432960D8F80010404601F00F013F
:104D3000B9420BD9016821F00F01394301600068C5
:104D400000F00F00B84201D00120D4E720784007DE
:104D50000AD52069296801F07001884204D22968C7
:104D600021F0700101432960207800070AD56069AD
:104D7000316801F07001884204D2316821F070017D
:104D8000014331602078C0060AD5A069316801F47A
:104D9000E061884204D2316821F4E061014331606E
:104DA000207880060CD5E1695846DBF8002002F037
:104DB0007002914204D2026822F070020A4302603B
:104DC00000F06CF80E492A682B68C2F3032203F046
:104DD0000F038A5CC95C02F01F0201F01F01D04082
:104DE000084A20FA01F11160074908600748006885
:104DF000BDE8F05FFEF752B8002000521844025898
:104E0000E61E0308C8000020C4000020BC000020EB
:104E100030B500F043F80B4A0B490C4B1568146889
:104E2000C5F3032204F00F048A5C095D02F01F023F
:104E300001F01F01D040064A20FA01F1196010600C
:104E4000084630BD18440258E61E0308C80000207A
:104E5000C400002000B5FFF7DBFF05490968054ADB
:104E6000C1F30211515C01F01F01C84000BD0000F8
:104E70001C440258E61E030800B5FFF7C9FF0549A8
:104E80000968054AC1F30221515C01F01F01C840C5
:104E900000BD00001C440258E61E0308454970B5D9
:104EA00045480968434B103B11F0380208D0011106
:104EB000082A03D0102A0BD0182A0BD0084670BD40
:104EC00019688906FBD51968C1F3C101C84070BDD6
:104ED0003A4870BD3749374D18310C1D24350A68E2
:104EE000096826682D6802F0030406F00102C1F388
:104EF0000511C5F3CC0515FB02F200EE102AB8EE41
:104F0000400AE9B32F4ADFED2E0AB7EE001A6CB162
:104F1000DFED2D1A012C01D0022C43D002EE101A25
:104F20001068F8EE422A81EEA22A1EE01C68A40650
:104F300011D51B6801EE901A1168C3F3C103F8EE96
:104F4000612AD84001EE900AC1F30800F8EE611A18
:104F500081EEA22A0BE001EE901ADFED1C2A00BFC1
:104F6000F8EE611A106882EEA12AC0F3080001EE83
:104F7000900AF8EE611A40EE201A31EE810A00E044
:104F800015E022EE000A1068C0F34620401C00EE37
:104F9000900AF8EE600A80EE201ABCEEC10A10EE0C
:104FA000100A70BD01EE901ADFED092AD8E7002043
:104FB00070BD0000104402580090D00340787D017D
:104FC00000000039304402580024744A0024744C14
:104FD00020BCBE4B2DE9F05F04007DD0FF4F207850
:104FE000FE4D1837DFF8F493103DC00748D0D9F8CC
:104FF0000000396800F03800102815D0182803D1B7
:1050000001F0030002280FD06068B0F5803F12D095
:1050100010B1B0F5A02F18D0286820F48030286097
:10502000286820F4802009E02868800328D560687B
:105030000028D2D024E0286840F4803028606068DE
:1050400088B1FDF7EFFE064609E0286840F48020AD
:105050002860F0E7FDF7E6FE801B64286FD828681B
:105060008003F7D50CE0FDF7DDFE064605E000BF46
:10507000FDF7D8FE801B6428F0D828688003F7D499
:10508000207841F20308D54E0C3E800769D5D9F847
:105090000000396810F038000ED0182801D18807B8
:1050A0000AD0E06890B3296821F019010143296012
:1050B000FDF7B8FE824631E02868400702D5E06877
:1050C00000288AD0E168286820F019000843286089
:1050D000FDF7A8FE824607E0DFE000BFFDF7A2FE75
:1050E000A0EB0A000228B9D828684007F6D500BF0F
:1050F000FDF792FE40451BD82069402812D0316848
:1051000021F47C3141EA003030602AE018E000BF31
:10511000FDF788FEA0EB0A0002289FD82868400708
:10512000F6D5E5E7306820F47C3040F40030EBE75A
:10513000207C316821F0FE4141EA0060E4E70DE1A6
:10514000286820F001002860FDF76CFE824605E02B
:10515000FDF768FEA0EB0A0002288DD828684007FA
:10516000F6D42078C0065DD5D9F80000DFF86CB21F
:10517000396800F03800ABF1040B082810D018286B
:1051800003D101F0030001280AD0E0690028286853
:1051900038D040F080002860FDF744FE824623E0CE
:1051A0002868C00523D5E069802876D11FE0206AF1
:1051B000202821D0316821F0F84141EA8060306038
:1051C00030E000BF94F82010DBF8002022F07C5281
:1051D00042EA0161CBF8001024E000BFFDF722FE97
:1051E000A0EB0A00022898D82868C005F6D5FDF77C
:1051F00013FE4045E6D8DAE7306820F0F84040F08A
:105200008040DCE720F080002860FDF70BFE0646BA
:1052100005E000BFFDF706FE801B02289DD8286828
:10522000C005F7D42078000729D56C48616964303F
:1052300000298046016811D041F001010160FDF7AD
:10524000F1FD064605E000BFFDF7ECFD801B0228DE
:10525000C9D8D8F800008007F6D510E021F0010188
:105260000160FDF7DFFD064605E000BFFDF7DAFD52
:10527000801B022872D8D8F800008007F6D4207866
:10528000800623D5A0690028286810D040F48050FB
:105290002860FDF7C7FD064605E036E1FDF7C2FDD3
:1052A000801B02285AD828688004F7D50EE020F425
:1052B00080502860FDF7B6FD064604E0FDF7B2FD1C
:1052C000801B02284AD828688004F7D42078400739
:1052D0004FD5DFF80C81D8F8001041F48071C8F880
:1052E0000010FDF79FFD064605E000BFFDF79AFDA3
:1052F000801B642832D8D8F80000C005F6D5374E98
:10530000A068603601280AD008B1052813D030689B
:1053100020F001003060306820F0040002E03068C6
:1053200040F001003060A06841F2883A90B1FDF78A
:1053300079FD80460AE0306840F004003060EEE716
:10534000FDF770FDA0EB0801514507D830688007D4
:10535000F6D50EE0FDF766FD804607E084E000BF6D
:10536000FDF760FDA0EB080151457DD8306880074E
:10537000F6D4606AB0B3DFF86480D9F8001008F1A1
:1053800020084FF6F87B08F10409C1F3C201032994
:10539000A8F1040A69D00228286820F080702860EB
:1053A00003D0FDF73FFD044684E0FDF73BFD0646D4
:1053B00005E000BFFDF736FD801B022877D828687E
:1053C0008001F7D4E26A40F2F331386854F8283F9C
:1053D000884340EA02101843386004E01044025841
:1053E00000480258B5E0217B434622894FF4FE0C69
:1053F000208A4FF0FE474902267D521E401EA1F52D
:105400000071C2F308088AB2761E0CEA004042EA34
:1054100008020243504607EA06610A431A60DAF8B6
:10542000002022F00102CAF80020D9F80020266AE4
:1054300022EA0B0242EAC602C9F80020DAF800109C
:10544000A26921F00C011143CAF800100168E26959
:1054500021F0020111430160016841F480310160D3
:10546000016841F4003101E021E027E001600168BA
:1054700041F480210160016841F001010160286868
:1054800040F080702860FDF7CDFC044605E000BFC9
:10549000FDF7C8FC001B022809D828688001F7D551
:1054A00057E000BFFDF7BEFC001B022802D9032015
:1054B000BDE8F09F28688001F4D44AE039680128EB
:1054C000D8F8000021D0A26A01F0030393421CD156
:1054D000E26AC1F305118A4217D1216BC0F30802B9
:1054E000491E8A4211D1616BC0F34622491E914286
:1054F0000BD1A16BC0F30642491E914205D1E16B6D
:10550000C0F30660491E814201D00120D0E7A16CA2
:105510004E46D9F80000C0F3CC00814219D0DAF829
:105520000000554620F00100CAF80000FDF77AFCA3
:105530004FEA0007FDF776FCB842FBD0A26C30685A
:1055400020EA0B0040EAC2003060286840F0010009
:1055500028600020ACE7000070B504004FF00100A7
:1055600041D094F8210028B9002084F8200020467A
:1055700000F042F8022084F821002068C168C94385
:10558000C90631D5CA2242625321206841622046B1
:1055900003F0DCF918BB2068164A8168114081606D
:1055A000D4E90003A569226981682A43194311439C
:1055B000816022682189E06840EA0140106120464C
:1055C00003F0E8F958B92168CA6C22F00302CA64F2
:1055D00022686369E169D56C19432943D164226863
:1055E000FF21516208B170BD0020012184F8211013
:1055F00070BD0000BFFF8FFF10B5B0B00446C021E2
:105600006846FAF7B1FE0B492068884210D10102C2
:1056100000208A132D92CDE900106846FEF7F4FDB4
:1056200008B1FBF752FC0448016841F400410160F5
:1056300030B010BD004000587044025870B5016889
:1056400004460B48C860FDF7EDFB4FF47A7605463B
:1056500007E000BFFDF7E6FB401BB04201D9032085
:1056600070BD2068C0688006F4D5002070BD0000C1
:105670005FFF030070477047704770472DE9F041A6
:105680000446032084F830004FF480732A4A4FF414
:1056900000784FF0000541B1012927D002290ED032
:1056A000606B012540F000601AE0A06D404504D019
:1056B000984202D0A06B012813D1114608E0A06DDA
:1056C0004045FAD09842F8D0A06B0128F5D003E00D
:1056D000204603F035FF20B1606B012540F080507B
:1056E0006063FDF79FFB0126074608E01249491E4B
:1056F000EEE700BFFDF796FBC01B401C15D020460F
:1057000000F0C2F90428F5D12068414603F0A3F95E
:1057100030B12268012509499163616B01436163DE
:1057200084F830602846BDE8F0814FF000406063A7
:1057300084F830600320F6E701FFFF80FF0FE01FD1
:105740002DE9FC5F0446806B0E46032184F830107F
:10575000002703285CD0B6F5004F59D0B6F5804F2E
:105760004FF000054FF400684FF0806904D006B395
:10577000606B40F000603FE00095002101952068DB
:1057800003F09EFC80011CD46946204603F0D0FC47
:1057900070BB019840032DD5B4F84410206809046B
:1057A00003F028F920BB206802211DE0606B28432C
:1057B00022E0009500210195206803F081FC800122
:1057C00001D54546F2E76946204603F0B1FC78B9B9
:1057D0000198C0030ED5B4F844102068090403F002
:1057E00009F928B92068002103F04EF90028DDD01E
:1057F0000546DBE74D46D9E76063606B4FF4007BFD
:10580000DFF8B8A040B121680127C1F838A042E014
:10581000606B40F08050EFE700214FF48030FEF7DE
:105820008FFB010032D0264D3346D4E904C0B1FBD2
:10583000F5F8D4E90192804510D9A66D5E450DD0EA
:10584000B6F5807F11D04FEA6506E0B14FEA400817
:10585000B1FBF8F8B04501D9B1FBF5F04946CDE907
:1058600000C0206803F030FC15E0164E30B14FEA5E
:105870004008B1FBF8F8A84502D8EFE7A942EDD9F6
:10588000B1FBF6F0EAE7B142E6D8E7E7606B012743
:1058900040F0006060632068594603F0DCF830B1E6
:1058A00022680127C2F838A0616B014361630120BF
:1058B00084F830003846BDE8FC9F0000FF0FE01F71
:1058C00080F0FA0200E1F50570470000F0B5C26D06
:1058D000920F0A70C26DC2F383624A70C26DC2F346
:1058E00001628A70C26D120CCA70B0F85C20120A94
:1058F0000A7190F85C204A71026E120DCA80026E25
:10590000C2F303420A72B0F86020C2F3C0324A7296
:10591000B0F86020C2F380328A72B0F86020C2F31F
:105920004032CA72B0F860200026C2F300320A7317
:105930004E730122836B4FF4007463B1012B3AD094
:10594000036850499963416B41F08051416380F88D
:1059500030200120F0BDB0F86030456E9B051B0D76
:1059600043EA95730B61436EC3F3C2630B75436ED9
:10597000C3F302634B75436EC3F342538B75436E9F
:10598000C3F38243CB75436EC3F3C2330B760D6909
:105990006D1C85640B7E03F007039B1C9D40856492
:1059A0000B7A446503F00F0302FA03F35F0A7D43A9
:1059B000C0E913350EE090F86050436EAD06AD0AB5
:1059C00045EA13430B610B695B1C9B028364C0E9CE
:1059D00013434465B0F86430C3F380334B76B0F8BA
:1059E0006430C3F3C6138B7690F8643003F07F0302
:1059F000CB76836EDB0F0B77836EC3F341734B77EC
:105A0000836EC3F382638B77836EC3F38353CB7749
:105A1000836EC3F3405381F8203081F82160836E98
:105A2000C3F3004381F82230B0F86830C3F3C033C9
:105A300081F82330B0F86830C3F3803381F8243024
:105A4000B0F86830C3F3403381F82530B0F86830DF
:105A5000C3F3003381F82630B0F86830C3F38123F4
:105A600081F82730B0F86830C3F3012381F828307B
:105A700090F86800C0F3460081F8290081F82A20D8
:105A80000020F0BDFF0FE01F70B5B0F844100025F6
:105A900004460068090403F0E4F818B1616B01439F
:105AA000616304E02068002103F00AFB0546C5F3AA
:105AB000432070BD2DE9F041054690F8300090B0CC
:105AC0000C460026032810D06946284603F0C6FC81
:105AD0002A4F4FF0010860B12A68012697636A6B6C
