:020000040800F2
:1000000048D30524B1020008176100080B57000807
:1000100015610008CD080008397B000800000000C9
:100020000000000000000000000000005F6B0008FE
:10003000790F000800000000D3620008616B00081F
:10004000CB020008CB020008CB020008CB0200085C
:10005000CB020008CB020008CB020008CB0200084C
:10006000CB020008CB020008CB020008CB0200083C
:10007000CB020008CB020008CB020008CB0200082C
:10008000CB020008CB020008CB020008CB0200081C
:10009000CB020008CB020008CB020008CB0200080C
:1000A000CB020008CB020008CB020008CB020008FC
:1000B000B16D0008BD6D0008CB020008CB0200083E
:1000C000CB020008CB020008CB020008CB020008DC
:1000D000CB020008ED7A0008CB020008CB02000832
:1000E000CB020008CB02000800000000CB02000891
:1000F000CB020008CB020008CB020008CB020008AC
:10010000CB020008CB020008CB020008CB0200089B
:10011000CB020008CB020008CB020008CB0200088B
:10012000CB020008CB020008CB020008CB0200087B
:10013000CB020008CB020008CB020008CB0200086B
:1001400000000000000000000000000000000000AF
:10015000CB020008CB020008950A0008CB02000879
:10016000CB020008CB020008CB020008CB0200083B
:10017000CB020008CB020008C509000800000000FF
:10018000CB020008CB020008CB020008CB0200081B
:10019000CB020008CB020008CB020008CB0200080B
:1001A000CB020008CB020008CB020008CB020008FB
:1001B000CB020008CB020008CB020008CB020008EB
:1001C000CB020008CB020008CB020008CB020008DB
:1001D000CB020008CB020008CB020008CB020008CB
:1001E000CB020008CB020008CB020008CB020008BB
:1001F000CB020008CB020008CB020008CB020008AB
:10020000CB020008CB020008CB020008CB0200089A
:10021000CB020008CB020008CB020008CB0200088A
:10022000CB020008CB020008CB020008000000004F
:10023000CB020008CB02000800000000CB0200083F
:10024000CB020008CB020008CB020008CB0200085A
:10025000CB020008CB020008CB020008CB0200084A
:10026000CB020008CB020008CB020008CB0200083A
:10027000CB020008CB020008CB02000800000000FF
:10028000CB020008CB020008CB02000800000000EF
:1002900000000000CB020008DFF810D000F06AFA7E
:1002A0000048004711AD0008AFF3008048D3052493
:1002B0000648804706480047FEE7FEE7FEE7FEE700
:1002C000FEE7FEE7FEE7FEE7FEE7FEE7156C000847
:1002D000990200082DE9F05F0546002092469B46F2
:1002E00088460646814640241BE02846414647464C
:1002F000224600F076F853465A46C01A914110D370
:1003000011461846224600F05DF82D1A67EB0108E9
:100310004F4622460120002100F054F817EB000957
:100320004E41201EA4F10104DFDC484631462A4636
:100330004346BDE8F09F40EA01039B0703D009E074
:1003400008C9121F08C0042AFAD203E011F8013BC1
:1003500000F8013B521EF9D27047D2B201E000F81A
:10036000012B491EFBD270470022F6E710B5134659
:100370000A4604461946FFF7F0FF204610BD30B587
:1003800004460020034600E05B1C934203D2E05C7D
:10039000CD5C401BF8D030BD30B50B460146002087
:1003A0002022012409E021FA02F59D4205D303FA37
:1003B00002F5491B04FA02F52844151EA2F10102B8
:1003C000F1DC30BD202A04DB203A00FA02F10020E3
:1003D00070479140C2F1200320FA03F31943904083
:1003E0007047202A04DB203A21FA02F000217047EE
:1003F00021FA02F3D040C2F120029140084319468D
:1004000070472DE9FE4F804681EA0300C00F0C467D
:10041000009021F0004123F00045B8EB0200A94113
:1004200005D24046214690461C460B46024623F024
:100430000040104347D0270DC7F30A00C3F30A5109
:100440000290401A019040286BDAC3F3130040F485
:10045000801B0098924620B10023D2EB030A63EB85
:100460000B0B01985946C0F140025046FFF7AAFF16
:1004700006460D4650465946019A00F08DF910EB9C
:1004800008006141002487EA115284EAE7731A43A5
:1004900040D0009A62B3019A012A4FEA075215DC54
:1004A000001B61EB02014FF0004202EA0752CDE966
:1004B0000042001C41F5801132462B4600F08DF9B8
:1004C00003B0BDE8F08F40462146F9E7001B61EB21
:1004D0000201001C41F5801300185B412018A2F5B1
:1004E000001747EB030140EAD570B6196D4111E0E2
:1004F0006D084FEA360645EAC0754FEA0752001B01
:1005000061EB0201001C41F5801149084FEA3000FF
:100510000019514132462B4603B0BDE8F04F00F0C0
:100520004DB90098012240000023D0EB020263EB9A
:10053000E073009821464FEAE074B8EB000061EBED
:100540000401E9E783F000435BE781F0004158E7ED
:100550002DE9FE4F81EA030404F0004421F000413C
:1005600000944FF0000B23F0004350EA01045ED0EA
:1005700052EA03045BD0C3F30A54C1F30A552C4476
:10058000A4F2F3340194A0FB0254C1F3130141F42B
:100590008011C3F3130343F4801301FB024400FBF7
:1005A000034E840A970A44EA815447EA8357A4FB1E
:1005B000076802958D0A05FB07854FEA932C04FB1B
:1005C0000C542705029D4FEA065847EA1637B5EB4B
:1005D00008056EEB070C870E920E47EA811742EA78
:1005E0008312A7FB0201B6EB0B0164EB00042B0D99
:1005F00043EA0C335E1844EB1C50DA465146E7FBE5
:100600000201C5F313044FEA0B3343EA14534FEAD4
:100610000432019C43EA0603A4F10C040294009CFA
:10062000CDE900B400F0D9F803B0BDE8F08F0020A8
:100630000146F9E72DE9F04D81EA030404F0004B8F
:1006400021F0004514464FF0000A23F0004150EA23
:10065000050220D054EA01021DD0C5F30A57024614
:10066000C5F31303C1F31300C1F30A5640F4801518
:1006700043F48013A7EB0608101BD64608F2FD389A
:1006800073EB050002D308F1010801E092185B4109
:10069000B8F1000F03DA00200146BDE8F08D00201C
:1006A0004FF48011064684460EE0171B73EB0507D6
:1006B00005D3121B63EB050306434CEA010C490802
:1006C0004FEA300092185B4150EA0107EDD152EA3F
:1006D000030012D082EA040083EA0501084305D032
:1006E000101BAB4106D20122002306E000224FF08E
:1006F000004302E06FF0010253101AEB06004CEBCE
:10070000085110EB0A0041EB0B01BDE8F04D00F081
:1007100055B8C1F30A52C1F3130140F2FF3341F45B
:1007200080119A4202DA00200146704740F23343BA
:100730009A42A2F2334202DC5242FFF752BEFFF766
:1007400041BE000030B5041E71F1000404DB4FF01F
:100750000044404264EB0101141E73F1000405DB08
:100760001C464FF00043524263EB0403994208BF1A
:10077000904230BD064C074D06E0E06840F00103B2
:1007800094E8070098471034AC42F6D3FFF788FD91
:10079000A4D91808C4D91808202A06DBCB17203A98
:1007A00041FA02F043EAE07306E041FA02F3D04076
:1007B000C2F12002914008431946704710B5141E3B
:1007C00073F1000408DA401C41F1000192185B410A
:1007D0001A4301D120F0010010BD2DE9F04D9246E1
:1007E0009B4611B1B1FA81F202E0B0FA80F22032F8
:1007F0009046FFF7E7FD04460F4640EA0A0041EA4B
:100800000B0153465A46084313D0114653EA0100E0
:1008100019D0C8F140025046FFF7E3FD05460E46E9
:10082000504659464246FFF7CDFD084305D001200A
:1008300004E020463946BDE8F08D0020054346EA35
:10084000E0762C4337430A986305E40AA0EB0800DE
:100850000022FD0A44EA47540A3002D5002001462E
:10086000E9E7010510196941DDE908450019694109
:10087000BDE8F04DA2E770B58C1810F8015B15F0DB
:10088000070301D110F8013B2A1106D110F8012B02
:1008900003E010F8016B01F8016B5B1EF9D12B0727
:1008A00005D40023521E0DD401F8013BFAE710F8DD
:1008B000013BCB1A921C03E013F8015B01F8015BCA
:1008C000521EF9D5A142D8D3002070BDFEE700002A
:1008D000F0B550273C260022C2F13B03B42403EBC1
:1008E00083050023544300EB451500BFB4FBF6FE1F
:1008F000C3EB031C4FEA0C1CBCFBF7FCCEEB0E1E3B
:100900000CEB0E1C31F81CC025F813C05B1C9BB20D
:10091000502BEBD3521C92B23C2ADDD3F0BD10B564
:10092000806B816C496D022906D0012180F8351059
:10093000C16C41F04001C16400F089FB10BD10B5ED
:10094000816B0C468A6B886C0168CAB10A68A36B1C
:1009500002F40022DB0706D12AB1C968E26B01EB81
:10096000C201002207E00A68120319D40969E26B88
:1009700001EBC201012200F04FFDA06B401E0EE012
:100980000868000302D5606CC86009E008680003CD
:1009900006D4E26B606C00EB82000861206CA063FF
:1009A000A06B216C88420BD12068C16841F0010125
:1009B000C16020680068800702D5012084F83500F6
:1009C00010BD0000014800F05BBB00000CFD0124DD
:1009D00010B505F0D3FB05F09BFA1F4800224FF439
:1009E000806102F058FA8C2002F028F91B48416916
:1009F00041F400514161282002F020F905F0CCFDBE
:100A0000142002F01BF905F005FCB0F5195F014652
:100A100009D0A1F51850423805D011A007F08EF882
:100A20004FF0FF3010BD15A007F088F8184805F00A
:100A300073FBB421F02005F0FCFBB423F02219462F
:100A4000104605F079FB012005F02EFC012005F091
:100A500016FC002010BD0000000C025800100258C7
:100A60004F5632363430204552524F5221212121E7
:100A700021202049443A25580D0A00004F563236AD
:100A80003430204F4B2C49443A307825580D0A0019
:100A90006ED20008014801F02DBA00005CFD01246F
:100AA000294A016891423AD0274A1832914236D0F9
:100AB000254A3032914232D0234A483291422ED0D8
:100AC000214A603291422AD01F4A7832914226D080
:100AD0001D4A9032914222D01B4AA83291421ED028
:100AE0001A4A91421BD0194A1832914217D0174A1C
:100AF0003032914213D0154A483291420FD0134AF6
:100B0000603291420BD0114A7832914207D00F4A9D
:100B10009032914203D00D4AA832914211D1CAB20B
:100B20001823103AB2FBF3F26FF30901032A02F023
:100B30000703074AD25CC26500D9091D81650846D2
:100B4000704721F0FF01F9E7100002401004024055
:100B5000CED3000830B5224A012301689142CAB2BF
:100B60001BD01F4C1434A14217D01D4C2834A14275
:100B700013D01B4C3C34A1420FD0194C5034A1422D
:100B80000BD0174C6434A14207D0154C7834A142E5
:100B900003D0134C8C34A1420CD11421114C083ACF
:100BA000B2FBF1F10F4A803201F01F0504EB810125
:100BB000AB4010E00C4D1824103A0D44B2FBF4F198
:100BC000A82D00D80831094A01F01F0402EB810169
:100BD000064AA3408032603080E80E0030BD00003D
:100BE0000854025800580258F0FBFDBF00080240AC
:100BF00010B50279531E072B2DD8174C0168A1425E
:100C00001BD0154C1434A14217D0134C2834A142E8
:100C100013D0114C3C34A1420FD00F4C5034A142A0
:100C20000BD00D4C6434A14207D00B4C7834A14258
:100C300003D0094C8C34A14203D10849074C4431FC
:100C400002E00749064C443104EB8202C0E91B2153
:100C500001219940416710BD08540258FC580258C0
:100C6000FC08024010B583694FF0C074826A0146E7
:100C7000002053B1B3F5005F15D072B1012A0CD03A
:100C8000022A0AD0032A09D104E01AB1012A06D0A7
:100C9000022A03D1C96AC90100D5012010BDC96A61
:100CA000A142FAD010BD002AF7D0012AF2D0022AC0
:100CB000F3D0032AF3D010BD30B5254D0468AC4203
:100CC00038D0234D1835AC4234D0214D3035AC42AC
:100CD00030D01F4D4835AC422CD01D4D6035AC4254
:100CE00028D01B4D7835AC4224D0194D9035AC42FC
:100CF00020D0174DA835AC421CD0164DAC4219D0AF
:100D0000144D1835AC4215D0124D3035AC4211D0CF
:100D1000104D4835AC420DD00E4D6035AC4209D077
:100D20000C4D7835AC4205D00A4D9035AC4201D01F
:100D3000084DA83563608368402B036803D0996031
:100D40000068C26030BD9A600068C16030BD0000BC
:100D500010000240100402402DE9F04F804E804FF9
:100D6000DFF8FC911836DFF8F8A148370468856D84
:100D70000AF1300ADFF8ECB14C45DFF8ECC1DFF8DE
:100D8000ECE16DD0B4426BD0544569D0BC4267D021
:100D9000DFF8D081A8F11808444561D05C455FD0E8
:100DA00064455DD074455BD0DFF8C481444557D0BD
:100DB000DFF8BC8108F11808444551D0DFF8B08154
:100DC00008F1300844454BD0DFF8A48108F1480809
:100DD000444545D0DFF8988108F1600844453FD08C
:100DE000DFF88C8108F17808444539D0DFF880813C
:100DF00008F19008444533D0DFF8748108F1A80861
:100E000044452DD0DFF86C81444529D0DFF864815A
:100E100008F11408444523D0DFF8588108F1280868
:100E200044451DD0DFF84C8108F13C08444517D0FB
:100E3000DFF8408108F15008444511D0DFF83481D3
:100E400008F1640844450BD0DFF8288108F17808E0
:100E5000444505D0DFF81C8108F18C08444509D1D0
:100E6000D0E91948C4F80480C46E1CB1D0E91C480C
:100E7000C4F8048004684C452ED0B4422CD05445AC
:100E80002AD0BC4228D0374E183EB44224D05C450C
:100E900022D0644520D074451ED0354EB4421BD0BC
:100EA000334E1836B44217D0314E3036B44213D0D8
:100EB0002F4E4836B4420FD02D4E6036B4420BD080
:100EC0002B4E7836B44207D0294E9036B44203D028
:100ED000274EA836B44215D190F85C603F2406F046
:100EE0001F06B440AC600468256825F480252560A1
:100EF0002EE09A600068C160BDE8F08F99600068DC
:100F0000C260F9E71B4EB4421BD01A4E1436B442ED
:100F100017D0184E2836B44213D0164E3C36B44281
:100F20000FD0144E5036B4420BD0124E6436B44239
:100F300007D0104E7836B44203D00E4E8C36B442F1
:100F4000DAD190F85C60012406F01F06B4406C60B2
:100F5000046863608368402B0368CFD1C9E7000051
:100F60001000024088000240A0000240B800024089
:100F70001004024008540258704700002DE9F8435D
:100F8000174DB427002406464FF0F008C4EB0411B7
:100F90004FEA080200208900B1FBF7F300EB800C58
:100FA0004FEA0C1CBCFBF2FC9BB203EB83031FFA61
:100FB0008CFC06EB431333F81C3025F81030401C32
:100FC00080B2F028E8D301232146F02200951420B6
:100FD00004F008FC641CA4B2B42CD7D3BDE8F88399
:100FE000B0F1012472B6FEE770B590F83440049D6C
:100FF000012C12D00124022680F8356043EA054313
:10100000056841EA024100226B620368196280F8B8
:10101000354080F83420104670BD022070BD10B5F8
:1010200090F83410012910D0012180F834100222E8
:1010300080F8352050F8342B0023146844F0040461
:10104000146041700370184610BD022010BD704737
:1010500010B501F02BFF094C6168401AB0F57A7F9A
:1010600006D301F023FF606000216078A0706170FA
:1010700001216078401C6070217010BD98510124DE
:101080002DE9F04104460068234F042605696907ED
:101090000BD54661E06C40F00200E06484F83560F6
:1010A000A06C0765A06C00F0E3FDA8070DD52168D2
:1010B00002204861E06C40F00100E06484F8356093
:1010C000A06C0765A06C00F0D3FDE80605D521688B
:1010D00010204861204600F073F8280705D52168E4
:1010E00008204861204600F095F9E80712D02068F2
:1010F0000168890703D5C16821F01E01C16020681D
:101100000121C26822F00102C260206841612046CC
:10111000FFF79EFFBDE8F0811F0900082DE9F041AF
:10112000040003D094F8350018B105E00120BDE8B3
:10113000F081204600F046F8A16902204FF0000E31
:1011400084F8350009B1C4F824E020681B4A01681E
:1011500011400160D4E90452E168D4E9010C29434B
:101160001043A269084354F8201B40EA0C001043C6
:10117000B4E8E8100A68184328433043384340EA8B
:101180000C001043086054F8300C343C102808D18F
:10119000A17FA08B2368E27F61F31F4040EA0260D9
:1011A000986120680121C26842F01E02C260C4F842
:1011B0004CE084F835100020B9E7000007F0E0FFAC
:1011C000704700002DE9F04387B0044614216846BB
:1011D000FFF7CAF84D49206888427DD14C48016824
:1011E00041F001010160006800F0010005904848ED
:1011F000001D016841F010010160016801F010015B
:101200000591016841F008010160016801F00801E1
:101210000591016841F002010160016801F00201DD
:101220000591016841F004010160016801F00401C9
:101230000591016841F001010160016801F00101BF
:101240000591016841F0080101600068022502AAC9
:10125000DFF8C08000F00800059073206946CDE9F2
:1012600000050024404603260D2782E8D00001F047
:10127000F7FC0820DFF8A09002AA6946CDE9000536
:10128000484682E8D00001F0EBFC8020694602AAC3
:10129000CDE90005214882E8D00001F0E1FCC02042
:1012A000694602AACDE900051D4882E8D00001F098
:1012B000D7FC5020694602AACDE90005194882E80A
:1012C000D00001F0CDFC6E02694601254846CDE90B
:1012D0000254CDE9006500E015E001F0C1FC6803AF
:1012E0006946CDE90005CDE90254404601F0B8FC5D
:1012F000D8F8141021F40051C8F814100122314616
:10130000484601F0C8FD07B0BDE8F0830000024880
:10131000DC44025800100258000C02580004025825
:1013200000080258000002582DE9F843044690F8DE
:101330003400012833D0354802274FF0010884F8E3
:101340003480002584F8357026684FF4803C63456E
:10135000376847F48047376026684FF040093768A0
:1013600027F0020737602668376847EA01073760C9
:10137000A16CC863A66C2649F164A16C0D65A563D8
:101380002564E56365640DD22168A06C283101F005
:1013900007FB80B3C4F84C9084F8358027E0022026
:1013A000BDE8F883A16C46464864C4F83880E3631E
:1013B000626405E0E06B4008E063A06B4000A0635E
:1013C000E06B6045F6D2A06B801EA063A36BE16B5F
:1013D000E06B2364009002EB81032168A06C28314C
:1013E00000F062F838B1C4F84C9084F83560012000
:1013F00084F83450D4E7FFE72068016841F0010128
:101400000160002084F83450CAE700003F0900085A
:101410001F090008704700000068214B984238D02F
:101420001F4B1833984234D01D4B3033984230D084
:101430001B4B483398422CD0194B6033984228D02C
:10144000174B7833984224D0154B9033984220D0D4
:10145000134BA83398421CD0124B984219D0114B11
:101460001833984215D00F4B3033984211D00D4BA2
:10147000483398420DD00B4B6033984209D0094B4A
:101480007833984205D0074B9033984201D0054BF2
:10149000A83312B1016100207047C160FBE7000072
:1014A00010000240100402402DE9FF4F81B0816816
:1014B0009646044600200E9A8029009012D094F897
:1014C0003400012813D094F83500012184F8341039
:1014D00001280ED0C902012000906165009805B076
:1014E000BDE8F08F4FF4807060650120F7E70220BF
:1014F000F5E7FE4D02272068002684F83570A842E3
:10150000FB4D6665FB4EFC4FDFF8F093DFF8F0A370
:10151000DFF8F0B33FD0A8423DD0B0423BD0B84254
:1015200039D0484537D0504535D0584533D0DFF80D
:10153000D4C30CF1180C60452DD0DFF8CCC3604546
:1015400029D0DFF8C4C30CF1180C604523D0DFF8B4
:10155000B8C30CF1300C60451DD0DFF8ACC30CF102
:10156000480C604517D0DFF8A0C30CF1600C604553
:1015700011D0DFF894C30CF1780C60450BD0DFF884
:1015800088C30CF1900C604505D0DFF87CC30CF1EA
:10159000A80C604510D1D0F800C03F214CF4802C3D
:1015A000C0F800C02068036194F85C30A06D03F0BF
:1015B0001F039940816010E0D0F800C048F2200875
:1015C0004CEA080CC0F800C02068036194F85C3055
:1015D000A06D03F01F0399404160134602997246C3
:1015E0002046FFF769FBC94AC84BDFF820E31432F5
:1015F000DFF8F882283320680EF13C0EC3494045DD
:101600005FD0A8425DD0B0425BD0B84259D04845C7
:1016100057D0504555D0584553D0DFF8E8C20CF1AB
:10162000180C60454DD0DFF8E0C2604549D0DFF8C6
:10163000D8C20CF1180C604543D0DFF8CCC20CF1D5
:10164000300C60453DD0DFF8C0C20CF1480C60455D
:1016500037D0DFF8B4C20CF1600C604531D0DFF850
:10166000A8C20CF1780C60452BD0DFF89CC20CF1BD
:10167000900C604525D0DFF890C20CF1A80C6045B5
:101680001FD088421DD090421BD0984219D070457F
:1016900017D0DFF878C20CF1500C604511D0DFF89C
:1016A0006CC20CF1640C60450BD0DFF860C20CF129
:1016B000780C604505D0DFF854C20CF18C0C604505
:1016C00009D1D4E9190CC0F804C0E06E18B1D4E90E
:1016D0001C0CC0F804C0C446206860453FD0A84236
:1016E0003DD0B0423BD0B84239D0484537D05045C4
:1016F00035D0584533D0DFF80C8208F11808404542
:101700002DD0DFF80482404529D0DFF8FC8108F1B4
:101710001808404523D0DFF8F08108F13008404533
:101720001DD0DFF8E48108F14808404517D0DFF804
:10173000D88108F16008404511D0DFF8CC8108F16C
:10174000780840450BD0DFF8C08108F1900840458B
:1017500005D0DFF8B48108F1A808404518D1D0F8C9
:10176000008028F01E0848F01608C0F800802068A5
:10177000D0F8148048F08008C0F81480206C08B9B4
:10178000A06CC0B12068D0F8008048F0080810E0D4
:10179000D0F8008028F00E0848F00A08C0F8008051
:1017A000206C08B9A06C30B12068D0F8008048F0F7
:1017B0000408C0F800802068E046404557D0A842A1
:1017C00055D0B04253D0B84251D048454FD0504583
:1017D0004DD058454BD0DFF82CC10CF1180C6045AA
:1017E00045D0DFF824C1604541D0DFF81CC10CF1C1
:1017F000180C60453BD0DFF810C10CF1300C60458F
:1018000035D0DFF804C10CF1480C60452FD0DFF86B
:10181000F8C00CF1600C604529D0DFF8ECC00CF189
:10182000780C604523D0DFF8E0C00CF1900C6045E7
:101830001DD0DFF8D4C00CF1A80C604517D0884249
:1018400015D0904213D0984211D070450FD02F4937
:10185000503188420BD02D496431884207D02B4942
:101860007831884203D029498C3188420DD1206ECD
:101870000168C90303D5016841F480710160E06E1D
:1018800018B1016841F4807101602068404528D09A
:10189000A84226D0B04224D0B84222D0484520D019
:1018A00050451ED058451CD016491831884218D0D2
:1018B0001549884215D014491831884211D012496F
:1018C000303188420DD010494831884209D00E4944
:1018D0006031884205D00C497831884201D00A49EC
:1018E0009031016841F001010160F7E5100002400C
:1018F00028000240400002405800024070000240B0
:1019000088000240A000024010040240085402581F
:101910002DE9F84F044601F0C9FA00903CB194F863
:101920003500022806D0802161650020E4E0012016
:10193000BDE8F88FC74DC74EC64918352068303608
:10194000DFF81483DFF814938842DFF814A3DFF87C
:1019500014B32ED0A8422CD0B0422AD0404528D073
:10196000484526D0504524D0584522D0BD4A18328B
:1019700090421ED0BC4A90421BD0BB4A18329042C3
:1019800017D0B94A3032904213D0B74A4832904209
:101990000FD0B54A603290420BD0B34A78329042B1
:1019A00007D0B14A9032904203D0AF4AA832904259
:1019B00009D1026822F01E0202602068426922F00A
:1019C0008002426103E0026822F00E020260276892
:1019D0008F4238464DD0A8424BD0B04249D0404506
:1019E00047D0484545D0504543D0584541D09D4A01
:1019F000183290423DD09C4A90423AD09A4A1832CE
:101A0000904236D0984A3032904232D0964A48328C
:101A100090422ED0944A603290422AD0924A783234
:101A2000904226D0904A9032904222D08E4AA832DC
:101A300090421ED08D4A90421BD08C4A1432904264
:101A400017D08A4A2832904213D0884A3C329042BA
:101A50000FD0864A503290420BD0844A6432904272
:101A600007D0824A7832904203D0804A8C32974223
:101A700004D1206E026822F48072026075492068E9
:101A8000884228D0A84226D0B04224D0404522D057
:101A9000484520D050451ED058451CD071491831BA
:101AA000884218D07049884215D06F491831884251
:101AB00011D06D49303188420DD06B494831884290
:101AC00009D069496031884205D067497831884238
:101AD00001D065499031016821F0010101600EE0FB
:101AE00001F0E4F90099401A052808D9202262651E
:101AF0000321002084F8351084F8340017E7386893
:101B0000C007EDD1534A0121206890422ED0A8424F
:101B10002CD0B0422AD0404528D0484526D0504548
:101B200024D0584522D04F4B183398421ED04E4BEC
:101B300098421BD04C4B1833984217D04A4B303345
:101B4000984213D0484B483398420FD0464B6033ED
:101B500098420BD0444B7833984207D0424B903395
:101B6000984203D0404BA833984208D194F85C7057
:101B70003F23A06D07F01F07BB40836007E094F888
:101B80005C30A06D03F01F0301FA03F3436020688B
:101B900090424DD0A8424BD0B04249D0404547D0AA
:101BA000484545D0504543D0584541D02D4A18327C
:101BB00090423DD02C4A90423AD02B4A1832904263
:101BC00036D0294A3032904232D0274A48329042A9
:101BD0002ED0254A603290422AD0234A7832904251
:101BE00026D0214A9032904222D01F4AA8329042F9
:101BF0001ED01E4A90421BD01C4A1432904217D06D
:101C00001A4A2832904213D0184A3C3290420FD0E0
:101C1000164A503290420BD0144A6432904207D098
:101C2000124A7832904203D0104A8C3290420BD143
:101C3000D4E919024260E06E30B1026822F4807289
:101C40000260D4E91C024260002084F8351084F858
:101C500034006DE61000024058000240700002405F
:101C600088000240A00002401004024008540258BC
:101C70002DE9F05F28B190F83510022904D08021B9
:101C800041650120BDE8F09F904C904B0168183CE5
:101C900018338E4ADFF83C92A1428D4CDFF838E2CF
:101CA0008E4FDFF83CB2DFF83CA28F4D8F4E31D023
:101CB00091422FD099422DD0A1422BD0494529D015
:101CC000714527D0B94225D0DFF810C20CF1180CAD
:101CD00061451FD0DFF808C2ACF1600C614519D036
:101CE000DFF8FCC1ACF1480C614513D0DFF8F0C15E
:101CF000ACF1300C61450DD0DFF8E4C1ACF1180C4B
:101D0000614507D0594505D0514503D0A94201D0BE
:101D1000B1422CD1DFF8B4C14FF0040880F835800F
:101D2000ACF1180C61451DD091421BD0994219D0DD
:101D3000A14217D0494515D0714513D0B94211D0F1
:101D40006648183081420DD065486038814209D01C
:101D500063484838814205D061483038814201D01B
:101D60005F481838086820F001000860ABE0D1F83F
:101D700000C02CF00E08DFF854C1C1F80080ACF1AF
:101D8000180C0168614527D0914225D0994223D093
:101D9000A14221D049451FD071451DD0B9421BD069
:101DA000DFF838C10CF1180C614515D0DFF830C1EF
:101DB000ACF1600C61450FD0DFF824C1ACF1480CE8
:101DC000614509D0DFF818C1ACF1300C614503D092
:101DD000DFF80CC1ACF1180CD1F800C02CF0010CEC
:101DE000C1F800C0DFF8E4804FF0010C0168A8F1F1
:101DF0001808414546D0914244D0994242D0A14270
:101E000040D049453ED071453CD0B9423AD0334AE2
:101E10001832914236D0324A603A914232D0304A3A
:101E2000483A91422ED02E4A303A91422AD02C4A3A
:101E3000183A914226D0594524D0514522D0A94282
:101E400020D0B1421ED02A4A91421BD0284A1432D7
:101E5000914217D0264A2832914213D0244A3C326C
:101E600091420FD0224A503291420BD0204A643224
:101E7000914207D01E4A7832914203D01C4A8C32DC
:101E8000914218D1016E0A6822F480720A6090F8BB
:101E90005C20816D02F01F020CFA02F24A60D0E968
:101EA00019124A60C16E31B10A6822F480720A6068
:101EB000D0E91C124A600022016D80F835C080F81C
:101EC000342001B188470020DCE6000028000240F1
:101ED000580002407000024088000240A00002400A
:101EE0007004024088040240A0040240B80402408A
:101EF000085402582DE9FC5F0446F74E0020DFF835
:101F0000D88300904FF41652F44808F11808A56DD4
:101F1000DFF8C493DFF8C0A3016809F13009206835
:101F20000AF1480AB1FBF2F1B04201912F68D5F8ED
:101F300000C0DFF8ACB335D04146884232D04845C6
:101F400030D050452ED058452CD0E5491831884224
:101F500028D0E3493031884224D0E14948318842D1
:101F600020D0E04988421DD0DE491831884219D07E
:101F7000DC493031884215D0DA494831884211D0E5
:101F8000DFF860E30EF1600E70450BD0D54A783271
:101F9000904207D0D34B9033984203D0D149A83117
:101FA00088427DD194F85C20082102F01F0201FADA
:101FB00002F23A424AD0B04232D0404530D0484591
:101FC0002ED050452CD058452AD0C54A18329042C0
:101FD00026D0C34A3032904222D0C14A4832904281
:101FE0001ED0C04A90421BD0BE4A1832904217D031
:101FF000BC4A3032904213D0BA4A483290420FD095
:10200000B84A603290420BD0B64A7832904207D03C
:10201000B44A9032904203D0B24AA832904203D1DF
:10202000026802F0040202E0026802F008026AB1EB
:10203000026822F00402026094F85C0000F01F00C5
:102040008140A960606D40F00100606594F85C001B
:10205000012100F01F008140394240D02068B04289
:1020600034D0404532D0484530D050452ED0584528
:102070002CD09B4A1832904228D0994A3032904254
:1020800024D0974A4832904220D0964A90421DD0A0
:10209000944A1832904219D0924A3032904200E06D
:1020A000AFE113D08F4A483290420FD08D4A603250
:1020B00090420BD08B4A7832904207D0894A9032B6
:1020C000904203D0874AA83290427DD1406910F0F7
:1020D000800F04D0A960606D40F00200606594F844
:1020E0005C00042100F01F00814039423ED020688E
:1020F000B04232D0404530D048452ED050452CD04B
:1021000058452AD0764A1832904226D0744A303246
:10211000904222D0724A483290421ED0714A904278
:102120001BD0704A1832904217D06E4A303290421B
:1021300013D06C4A483290420FD06A4A60329042C3
:102140000BD0684A7832904207D0664A903290426B
:1021500003D0644AA83290424ED1006810F0020FBA
:1021600004D0A960606D40F00400606594F85C00E4
:10217000102100F01F008140394258D02068B04241
:1021800034D0404532D0484530D050452ED0584507
:102190002CD0534A1832904228D0514A30329042C3
:1021A00024D04F4A4832904220D04E4A90421DD00F
:1021B0004C4A1832904219D04A4A3032904215D0D7
:1021C000484A4832904200E014E00FD0454A60325D
:1021D00090420BD0434A7832904207D0414A903225
:1021E000904203D03F4AA832904207D1006800F0E5
:1021F000080006E0006872E70068B7E7006800F0D2
:102200000400A0B1A96020680168490304D50068F2
:10221000000308D5A16C07E00168C90503D4016873
:1022200021F008010160216C09B12046884794F82B
:102230005C00202100F01F008140394279D02068E5
:10224000B04232D0404530D048452ED050452CD0F9
:1022500058452AD0224A1832904226D0204A30329D
:10226000904222D01E4A483290421ED01D4A9042CF
:102270001BD01C4A1832904217D01A4A3032904272
:1022800013D0184A483290420FD0164A603290421A
:102290000BD0144A7832904207D0124A90329042C2
:1022A00003D0104AA832904203D1006800F0100019
:1022B00002E0006800F00200B0B3A96094F83500B5
:1022C0000428206801680FD049037ED50068000308
:1022D0002BD4616C2AE0000010000240AC510124B4
:1022E000700002401004024021F0160101602068D5
:1022F000416921F080014161206C08B9A06C20B1D6
:102300002068016821F00801016094F85C303F21E9
:10231000012003F01F0300229940A96084F83500D2
:1023200084F83420216D65E003E0E16B09B12046BB
:102330008847606D00287DD0606DC00759D0206847
:10234000042184F83510B0422BD0404529D04845AF
:1023500027D0504525D0584523D09D49884220D0CC
:102360009B49183188421CD099493031884218D095
:102370009849884215D097491831884211D095491B
:10238000303188420DD093494831884209D0914973
:102390006031884205D08F497831884201D08D491B
:1023A0009031016821F00101016020680099019AD3
:1023B000491C0091914202D80168C907F6D1006812
:1023C000C00710D003200FE0FFE70168C905ACD4B7
:1023D00003680121002223F01003036084F8351004
:1023E00084F83420A1E7012084F83500002084F827
:1023F0003400E16C00291DD002B02046BDE8F05F3A
:102400000847754988421DD073491431884219D054
:1024100071492831884215D06F493C31884211D02A
:102420006D49503188420DD06B496431884209D0E2
:10243000694900E084E07831884203D066498C31F4
:1024400088427DD194F85C800427016808F01F0859
:1024500007FA08F717EA0C0F009746D04F0744D544
:1024600000980F04686003D5C8033CD4A16CC1E791
:10247000880638D42068B0422DD05549603988424A
:1024800029D0484527D0504525D0584523D050491C
:10249000884220D04E49183188421CD04C493031F6
:1024A000884218D04B49884215D04A491831884291
:1024B00011D04849303188420DD0464948318842D0
:1024C00009D0704507D0904205D0984203D04149C9
:1024D000A831884203D1016821F0080102E00168B7
:1024E00021F004010160216C84E7022707FA08F754
:1024F00017EA0C0F00974ED08F074CD500980F04A9
:10250000686003D5C80344D4616C73E7880640D47F
:102510002068B0422FD02E49603988422BD04845E0
:1025200029D0504527D0584525D02949884222D066
:102530002749183188421ED025493031884200E0B1
:1025400044E018D02349884215D0224918318842E6
:1025500011D02049303188420DD01E49483188427F
:1025600009D0704507D0904205D0984203D0194950
:10257000A831884203D1016821F0140102E001680A
:1025800021F00A010160012184F83510002084F84F
:102590003400E16B2EE7082202FA08F212EA0C0F6F
:1025A00014D0090712D5016821F00E01016094F8DA
:1025B0005C100120002201F01F0100FA01F16960A6
:1025C000606584F8350084F8342012E7BDE8FC9F8C
:1025D0008800024010040240085402582DE9F05FC0
:1025E000044600F063FC002C07467DD0E34E022138
:1025F00020684FF00308DFF888934FF00005DFF8FC
:1026000084A3B042DFF880B334D0DC4A1832904261
:1026100030D048452ED050452CD058452AD0DA4AE3
:102620001832904226D0D84A3032904222D0D64A30
:10263000483290421ED0D54A90421BD0D34A18321D
:10264000904217D0D14A3032904213D0CF4A48320C
:1026500090420FD0CD4A603290420BD0CB4A7832B4
:10266000904207D0C94A9032904203D0C74AA8325C
:1026700090427DD184F83510B04284F834502ED089
:10268000BE49183188422AD0484528D0504526D026
:10269000584524D0BC491831884220D0BA4930313D
:1026A00088421CD0B8494831884218D0B74988427E
:1026B00015D0B6491831884211D0B449303188421A
:1026C0000DD0B2494831884209D0B04960318842C2
:1026D00005D0AE497831884201D0AC4990310168CB
:1026E00021F00101016008E027E100BF00F0DEFBFE
:1026F000C01B052801D920211CE120680068C00703
:10270000F4D104F108002168D4E9053C8E4685C85F
:1027100009681043D4E907281F43636A38439C4F74
:1027200040EA0C001043394040EA0800042B40EA1C
:10273000010003D1D4E90B121143084395490968FC
:102740006FF30F01B1F1005F0FD36168A1F12902AE
:10275000052A08D9163A032A05D9083A012A02D9C6
:102760004F39032901D840F48010CEF8000000E072
:1027700023E02068676A4069042F20F0070047EAD9
:1027800000070DD1D4E90A01074349B12046FEF7FD
:1027900069FA28B140206065012184F83510CCE049
:1027A000206847612046FEF77BF994F85C203F21C2
:1027B00002F01F029140816054E0774A90421BD0A2
:1027C000754B1433984217D0734B2833984213D06B
:1027D000714B3C3398420FD06F4B503398420BD023
:1027E0006D4B6433984207D06B4B7833984203D0DB
:1027F000694B8C3398427DD184F8351084F834507D
:10280000664B0168A26801EA030E402A73D0802A51
:1028100072D00022D4E90378D4E9053142EAD70224
:1028200042EAD8085C4AD4E9077C48EAD30848EA77
:10283000D10141EAD701524241EA1C11142341EA75
:102840000E01016020681044B0FBF3F08000E065E9
:102850002046FEF725F994F85C20012102F01F02C2
:10286000914041602068B04257D0444918318842B5
:1028700053D0484551D050454FD058454DD042498E
:102880001831884249D040493031884245D03E49CC
:102890004831884241D03D4988423ED03B491831B9
:1028A00088423AD039493031884236D037494831A8
:1028B000884232D03549603188422ED03349783150
:1028C00088422AD031499031884226D02F49A831F8
:1028D000884222D0304988421FD02F491431884283
:1028E0001BD02D492831884217D02B493C318842D2
:1028F00013D002E01DE017E018E02749503188426C
:102900000BD025496431884207D023497831884269
:1029100003D021498C31884229D12046FEF71AF98B
:10292000A06880280CD00CE0102273E74FF480429E
:1029300070E74021616584F835800120BDE8F09F93
:102940006560216E20790860D4E9190141606068F2
:10295000401E072808D82046FEF74AF9E06E0560B9
:10296000D4E91C01416002E0E56625676567012046
:10297000656584F835000020E0E7000010000240A3
:102980004000024058000240700002401004024023
:102990003F8010FE0010005C085402580F00FEFF3C
:1029A0002DE9F84F04008C464FF00000009014D041
:1029B00094F83400012812D094F8355001200021F9
:1029C00084F83400012D0CD0C00260650120009015
:1029D00084F834100098BDE8F88F0120FBE702204E
:1029E000F9E78C4D0226206884F83560A8428A4DAC
:1029F00061658A4E8A4FDFF82C82DFF82C92DFF86F
:102A00002CA2DFF82CB226D0A84224D0B04222D08B
:102A1000B84220D040451ED048451CD050451AD061
:102A2000584518D08349884215D0824918318842C8
:102A300011D08049303188420DD07E4948318842DA
:102A400009D07C496031884205D07A497831884282
:102A500001D078499031016821F00101016061469F
:102A60002046FEF779F96B49206888422CD0A842AD
:102A70002AD0B04228D0B84226D0404524D048457C
:102A800022D0504520D058451ED06A4A90421BD0D3
:102A9000684A1832904217D0664A3032904213D0BA
:102AA000644A483290420FD0624A603290420BD062
:102AB000604A7832904207D05E4A9032904203D00A
:102AC0005C4AA83290420CD1026822F01E0242F009
:102AD00016020260206C88B12068026842F0080289
:102AE0000BE0026822F00E0242F00A020260206C43
:102AF00020B12068026842F0040202602068884227
:102B00004BD0A84249D0B04247D0B84245D040450A
:102B100043D0484541D050453FD058453DD0454A27
:102B200090423AD0434A1832904236D0414A30322D
:102B3000904232D03F4A483290422ED03D4A6032D5
:102B400090422AD03B4A7832904226D0394A90327D
:102B5000904222D0374AA83290421ED0364A904244
:102B60001BD0354A1432904217D0334A2832904253
:102B700013D0314A3C3290420FD02F4A503290420B
:102B80000BD02D4A6432904207D02B4A78329042C3
:102B900003D0294A8C3290420DD1206E0268D203B4
:102BA00003D5026842F480720260E06E18B10268D8
:102BB00042F4807202602068884226D0A84224D065
:102BC000B04222D0B84220D040451ED048451CD04B
:102BD00050451AD0584518D01649884215D0154985
:102BE0001831884211D01349303188420DD0114933
:102BF0004831884209D00F496031884205D00D49DB
:102C00007831884201D00B499031016841F00101CF
:102C10000160DFE610000240280002404000024050
:102C2000580002407000024088000240A0000240AC
:102C3000B8000240100402400854025870B504461F
:102C400000F034F90546601C02D0044800780444C2
:102C500000F02CF9401BA042FAD370BDA051012412
:102C60002DE9F84F03247D4D00234FF001094FF06B
:102C7000B04B4FF00F0AE9E009FA03F73A4076D07B
:102C80000E7906F00306012E01D0022E18D1D0F8DD
:102C900008C04FEA430ECE6804FA0EF82CEA080C7E
:102CA00006FA0EF646EA0C068660D0F804C00E79E5
:102CB0002CEA070CC6F300169E4046EA0C06466056
:102CC0000E79F643B6070BD0C6684FEA43088F6803
:102CD00004FA08FC26EA0C0607FA08F73743C7602F
:102CE0000E7906F00306022E12D1DE080F694FEAB4
:102CF000437C00EB8606B646366A4FEADC6C0AFA7D
:102D00000CF807FA0CF726EA08063743CEF82070CD
:102D10000F7906684FEA430807F0030704FA08FC36
:102D200007FA08F726EA0C06374307604E6816F4E0
:102D3000403F1CD04A4E376847F00207376036687C
:102D40009F0706F00206009623F0030606F1B04640
:102D5000B6463F0FD6F80864DFF808810AFA07FC88
:102D6000404526EA0C0603D14FF0000C41E06CE030
:102D7000DFF8F4C0604502D14FF0010C39E0DFF814
:102D8000ECC0604502D14FF0020C32E0DFF8E0C049
:102D9000604502D14FF0030C2BE0DFF8D8C060454E
:102DA00002D14FF0040C24E0DFF8CCC0604502D122
:102DB0004FF0050C1DE0DFF8C4C0604502D14FF0B4
:102DC000060C16E0DFF8B8C0604502D14FF0070CE2
:102DD0000FE0DFF8B0C0604502D14FF0080C08E00A
:102DE000DFF8A4C0604502D14FF0090C01E04FF0BC
:102DF0000A0C0CFA07FC4CEA060CCEF808C44F6823
:102E0000DBF80060FF0226EA020600D516435F46A3
:102E1000CBF80060D1F804C0DBF804605FEA8C2CCA
:102E200026EA020600D516437E606E684F6826EAE1
:102E30000206BF0300D516436E602E684F6826EA6F
:102E40000206FF0300D516432E605B1C0A6832FAA7
:102E500003F67FF411AFBDE8F88F00008000005842
:102E6000F4440258000002580004025800080258B6
:102E7000000C0258001002580014025800180258A2
:102E8000001C025800200258002402580069084023
:102E900000D0012070470AB1816170470904FBE747
:102EA00001480068000C70470010005C0148806811
:102EB00070470000A0510124024881680278114443
:102EC00081607047A0510124032010B500F0D4F8B0
:102ED00001F0AEF80F4A104914681368C4F30322D6
:102EE00003F00F038A5CC95C02F01F0201F01F01AE
:102EF000D0400A4A20FA01F11160094908600F2008
:102F000000F010F808B1012010BD00F079F80020A1
:102F100010BD000018440258EED30008B05101243F
:102F2000AC51012470B50D4D04462878A0B14FF482
:102F30007A71B1FBF0F00A490968B1FBF0F001F0D9
:102F400098FE48B9102C07D200222146501E00F0EE
:102F500073F800206C6070BD012070BDA051012489
:102F6000AC510124F0B5154C4378211D0A1D236096
:102F70000378F3B143680B60057BC67A817A437BA3
:102F80002D07847B45EA0665C77B90F809C0067A61
:102F900090F800E045EAC14040EA834040EA4440FE
:102FA00040EA074040EA0C2040EA460040EA0E00B2
:102FB00001E0002008601060F0BD000098ED00E026
:102FC000BFF35F8F044800210368034A23F4803372
:102FD000036070321160704724ED00E0074A40F052
:102FE0000100064970321060086840F480300860C3
:102FF000BFF34F8FBFF36F8F7047000024ED00E0E9
:10300000054808B5016841F002010160006800F060
:103010000200009008BD0000F4440258002809DBBB
:10302000410900F01F028900012001F1E0219040D8
:10303000C1F80001704700000E4BF0B41B680D464C
:10304000C3F30223C3F10706042E00D90426191D79
:10305000072901D2002300E0DB1E012404FA06F157
:103060009C40491E2940641E994014402143F0BCF5
:1030700004F09BBD0CED00E0064900F0070210B51E
:103080004FF6FF040868044B204040EA0220184332
:10309000086010BD0CED00E00000FA05134970B5A2
:1030A0000A68D243520705D5096801F00701814239
:1030B00013D118E00A6822F0070202430A60FFF702
:1030C000F5FE0A4D4FF47A760446083D07E000BF4E
:1030D000FFF7ECFE001BB04201D9012070BD28684B
:1030E000C0438004F4D4002070BD00000C48025896
:1030F00010B500F057FF05490968054AC1F30211F0
:10310000515C01F01F01C84010BD0000204402586E
:10311000EED30008494930B5484C0B1D0A681434F9
:1031200009681D68246802F00303C5F30012C1F3A7
:103130000531C4F3CC04002914FB02F200EE102A7E
:10314000F8EE400A75D03F4A9FED3D1AB7EE000AEF
:103150006BB1DFED3D1A012B01D0022B64D002EEE2
:10316000101A1168F8EE422A81EEA22A21E0334CAF
:10317000283C23689B0612D5344B246801EE901A34
:103180001168C4F3C104F8EE612AE34001EE903AFD
:10319000C1F30801F8EE611A81EEA22A0BE001EEFC
:1031A000901ADFED2B2A00BFF8EE611A116882EE4B
:1031B000A12AC1F3080101EE901A1168F8EE611A14
:1031C00040EE811A71EE800A62EE200AC1F34621B8
:1031D00001EE101AB8EE411A31EE001AC0EE811A53
:1031E000BCEEE11A80ED001A1168C1F3064101EE50
:1031F000101AB8EE411A31EE001AC0EE811ABCEE78
:10320000E11A80ED011A1168C1F3066101EE101A8E
:10321000B8EE411A31EE000A80EE801ABCEEC10A07
:1032200080ED020A30BD04E001EE901ADFED092ABC
:10323000BAE70021016041608160F3E72844025849
:1032400000000039384402580024744A0090D0032A
:103250000024744C001BB74B494930B5484C0B1D3A
:103260000A681C3409681D68246802F00303C5F36A
:103270000022C1F30551C4F3CC04002914FB02F26F
:1032800000EE102AF8EE400A75D03F4A9FED3D1A35
:10329000B7EE000A6BB1DFED3D1A012B01D0022B16
:1032A00064D002EE101A1168F8EE422A81EEA22ACA
:1032B00021E0334C283C23689B0612D5344B24680C
:1032C00001EE901A1168C4F3C104F8EE612AE340DC
:1032D00001EE903AC1F30801F8EE611A81EEA22ADC
:1032E0000BE001EE901ADFED2B2A00BFF8EE611A19
:1032F000116882EEA12AC1F3080101EE901A11684B
:10330000F8EE611A40EE811A71EE800A62EE200A30
:10331000C1F3462101EE101AB8EE411A31EE001A3F
:10332000C0EE811ABCEEE11A80ED001A1168C1F3FB
:10333000064101EE101AB8EE411A31EE001AC0EE45
:10334000811ABCEEE11A80ED011A1168C1F3066121
:1033500001EE101AB8EE411A31EE000A80EE801A22
:10336000BCEEC10A80ED020A30BD04E001EE901A05
:10337000DFED092ABAE70021016041608160F3E7CF
:103380002844025800000039404402580024744A7E
:103390000090D0030024744C001BB74B2DE9FE4F66
:1033A0000546DFF8E48350F8081B0024F64FC943B4
:1033B000019005F12800264608F124080090080134
:1033C0001DD4A86E50B1B0F5801F0CD0B0F5001F11
:1033D0000ED0B0F5401F1ED001240FE0386840F435
:1033E0000030386017E00198022102F073FF03E01B
:1033F0000098022102F0FEFF04000CD02646288827
:10340000C043C00523D4A86D05281ED2DFE800F014
:103410000C11161B1B00AA6ED8F8001021F44011E5
:103420001143C8F80010EAE7386840F4003038600B
:1034300009E00198002102F04DFF03E0009800210F
:1034400002F0D8FF044674B100E001242646288823
:10345000C043800528D4E86D80281ED00CDC90B1D4
:1034600040280ED114E0AA6DD8F8001021F0070111
:103470001143C8F80010EAE7C02813D0B0F5807FE8
:1034800010D001240FE0386840F40030386009E0C3
:103490000198002102F01EFF03E00098002102F0D5
:1034A000A9FF04469CB126462888DFF8DC92C04379
:1034B00009F12C0940052CD4D5F8A800B0F5800FEF
:1034C00020D00DDCA0B1B0F5001F0FD115E0EA6DE2
:1034D000D8F8001021F4E0711143C8F80010E3E7B8
:1034E000B0F5C00F13D0B0F5000F10D001240FE0DD
:1034F000386840F40030386009E00198002102F09B
:10350000E9FE03E00098002102F074FF04467CB15C
:1035100026462888C04300052DD4D5F8AC00B0F16C
:10352000007F21D00EDCA8B1B0F1807F10D116E071
:10353000D5F8A820D9F8001021F460011143C9F88A
:103540000010E6E7B0F1407F13D0B0F1806F10D0EB
:1035500001240FE0386840F40030386009E0019839
:10356000002102F0B7FE03E00098002102F042FFC4
:10357000044674B126462868C04380011FD4E86C15
:10358000D8B110280FD0202812D0302815D001240F
:1035900014E0D5F8AC20D9F8001021F0E061114317
:1035A000C9F80010E7E7386840F40030386004E0FC
:1035B0000198022102F08EFE044674B12646288846
:1035C000C043C0042BD4286EB0F5005F20D00DDCC2
:1035D000A0B1B0F5805F0FD115E06B48EA6C2030E8
:1035E000016821F0300111430160E8E7B0F5405F68
:1035F00013D0B0F5804F10D001240FE0386840F4AC
:103600000030386009E00198002102F063FE03E019
:103610000098002102F0EEFE04468CB12646288870
:10362000C043800429D4686EB0F5403F23D010DC3D
:1036300008B3B0F5803F14D0B0F5003F0FD115E0CE
:103640002A6ED8F8001021F4E0411143C8F80010A8
:10365000E5E7B0F5802F0ED0B0F5A02F0BD00124F8
:103660000AE00198012102F035FE03E000980121F3
:1036700002F0C0FE044694B126462888C0434004A8
:103680002AD4D5F8B000B0F1405F23D010DC08B3E5
:10369000B0F1805F14D0B0F1005F0FD115E06A6E19
:1036A000D8F8001021F4E0211143C8F80010E4E735
:1036B000B0F1804F0ED0B0F1A04F0BD001240AE042
:1036C0000198012102F006FE03E00098012102F0BA
:1036D00091FE044674B126462888C04300041FD4D6
:1036E000286FD8B1B0F1805F0ED0B0F1005F10D07C
:1036F000012414E0D5F8B020D9F8001021F0E04101
:103700001143C9F80010E7E7386840F4003038602A
:1037100004E00198012102F0DDFD044674B1264663
:103720002868C043C0011ED4A86CD0B101280ED0B7
:10373000022811D0032814D0012413E02A6FD8F8EE
:10374000001021F040511143C8F80010E8E7386834
:1037500040F40030386004E00198022102F0BAFD24
:103760000446ACB126462868DFF81CB0C043ABF174
:103770001C0B400252D40548016841F4807101607D
:10378000FFF794FB824611E02C440258004802588F
:10379000FA48AA6C016821F0030111430160E2E7D5
:1037A000FFF784FBA0EB0A00642835D8F4480068D2
:1037B000C005F5D58CBBDFF8C4A3B5F8B4100AF189
:1037C000240ADAF8000001F4407100F440708842E5
:1037D00011D0DAF80010DAF8002021F4407142F438
:1037E0008032CAF80020DAF8002022F48032CAF8C9
:1037F0000020CAF80010D5F8B400B0F5807F1AD1C7
:10380000FFF754FB029012E0FFF750FB0299411AB8
:1038100041F2883081420AD9032426462878DFF80D
:103820005CA3C0430AF1080AC00721D03CE0DAF8E3
:1038300000008007E8D5D5F8B410C1F301200328B3
:1038400058460DD0016821F47C510160B5F8B420D0
:10385000DAF80010C2F30B021143CAF80010DDE7DA
:10386000C84A036802EA111223F47C511143ECE7C1
:10387000E86F182816D005DCA0B1082808D0102859
:1038800004D10AE020280DD028280BD001240AE01A
:103890000198012102F01EFD03E00098012102F0D1
:1038A000A9FD044664B126462878C04380071ED48B
:1038B000A86F062819D2DFE800F0160C11161616AC
:1038C000EA6FDAF8001021F038011143CAF800104D
:1038D000EAE70198012102F0FDFC03E000980121D4
:1038E00002F088FD04467CB100E0012426462878D9
:1038F000C04340071FD4D5F89400062819D2DFE84A
:1039000000F0160C11161616AA6FDAF8001021F046
:1039100007011143CAF80010E9E70198012102F0FC
:10392000D9FC03E00098012102F064FD0446A4B133
:1039300000E0012426462878C04380062BD4D5F821
:103940009000B0F1405F24D011DC10B3B0F1805F83
:1039500015D0B0F1005F10D116E0D5F89420D9F859
:10396000001021F007011143C9F80010E3E7B0F19E
:10397000804F0ED0B0F1A04F0BD001240AE0019887
:10398000002102F0A7FC03E00098022102F032FDC2
:10399000044694B126462878C04340062BD4D5F877
:1039A0009C00B0F5406F24D011DC10B3B0F5806FEF
:1039B00015D0B0F5006F10D116E0D5F89020DAF8E8
:1039C000001021F0E0411143CAF80010E3E7B0F520
:1039D000805F0ED0B0F5A05F0BD001240AE0019803
:1039E000002102F077FC03E00098022102F002FDC2
:1039F000044694B126462878C04300062BD4D5F857
:103A0000A000B0F5C04F24D011DC10B3B0F5005FBA
:103A100015D0B0F5804F10D116E0D5F89C20D9F81C
:103A2000001021F4E0511143C9F80010E3E7B0F5AC
:103A3000004F0ED0B0F5204F0BD001240AE00198C2
:103A4000002102F047FC03E00098022102F0D2FCC2
:103A5000044654B126462878C04300071ED4D5F842
:103A60008400B0F5805F0AD00FE0D5F8A020D9F827
:103A7000001021F460411143C9F80010EBE70098F1
:103A8000022102F0B7FC00B10126D5F88420DAF853
:103A9000001021F440511143CAF800102878C043A7
:103AA000C00613D4D5F89800B0F5807F05D10098F2
:103AB000022102F09FFC00B10126D5F89820D9F828
:103AC000001021F440711143C9F800102868C04368
:103AD000000316D4D5F8A40038B1B0F5803F09D062
:103AE000B0F5003F0BD001240AE00198002102F05C
:103AF000F1FB03E00098022102F07CFC04468CB14B
:103B000026462868C043400322D4D5F88800B0F583
:103B1000801F11D0B0F5001F13D0B0F5401F15D095
:103B2000012414E0D5F8A420D9F8001021F4403184
:103B30001143C9F80010E4E7386840F400303860F9
:103B400004E00098012102F055FC04465CB12646D1
:103B50002868C043C00323D4286DA8B1B0F5803FC6
:103B600017D001241BE0D5F88820DAF8001021F4E2
:103B700040111143CAF80010EAE700004C44025813
:103B800000480258CFFFFF00386840F4003038602A
:103B900004E00198022102F09DFB0446E4B12646B0
:103BA0002868C043800005D40098022102F022FC5E
:103BB00000B101262868C04380031BD4D5F88000DB
:103BC000B0B1B0F5807F0FD0B0F5007F10D0B0F568
:103BD000407F0DD001240CE05A482A6D016821F481
:103BE000803111430160DBE7386840F40030386011
:103BF000ECB326462868C043C00207D46A6FD8F8E1
:103C0000001021F000411143C8F800102868C0439B
:103C1000C00008D4D5F8B820DBF8001021F48041AA
:103C20001143CBF800102868C043800207D4EA6E25
:103C3000D8F8001021F080711143C8F800102868EE
:103C4000C04340000CD4DBF8001021F40041CBF855
:103C50000010DBF80010D5F8BC201143CBF80010A1
:103C60002868C04308D437486A6D016800E018E04E
:103C700021F04051114301602868C043000208D47C
:103C8000D5F88C20DAF8001021F440011143CAF86D
:103C9000001028790024C04300F0010020430AD01E
:103CA0000FE0D5F88020DAF8001021F440711143BC
:103CB000CAF800109EE70198002102F00BFB00B14A
:103CC00006462879C04300F00200204305D1019840
:103CD000012102F0FFFA00B106462879C04300F046
:103CE0000400204305D10198022102F0F3FA00B14B
:103CF00006462879C04300F00800204305D100980B
:103D0000002102F077FB00B106462879C04300F09D
:103D10001000204305D10098012102F06BFB00B197
:103D200006462879C04300F02000044304D10098DF
:103D3000022102F05FFB00B916B10120BDE8FE8F41
:103D40000020FBE74C4402582DE9F05F04000F46C9
:103D50007ED0DFF83882D8F8000000F00F00B842BB
:103D60000CD2D8F8001021F00F013943C8F8001028
:103D7000D8F8000000F00F00B84269D12078844DD7
:103D800040070AD52069296801F07001884204D9EA
:103D9000296821F070010143296020787C4E361D8E
:103DA00000070AD56069316801F07001884204D9C2
:103DB000316821F07001014331602078C0060AD5D6
:103DC000A069316801F4E061884204D9316821F4C6
:103DD000E061014331602078DFF8B4B180060BF177
:103DE000080B0CD5E1695846DBF8002002F07002A0
:103DF000914204D9026822F070020A4302602078DE
:103E000080070AD5E068296801F00F01884204D9CB
:103E1000296821F00F01014329602078C0073ED0B6
:103E20005B49A2682868183920F470601043286044
:103E30006068022818D0032819D00968012819D011
:103E4000490700294ADADFF848A1AAF1080A00E088
:103E500044E0DAF8002022F007020243CAF800200A
:103E6000FFF724F8814612E009688903E9E7096849
:103E70008901E6E7C905E4E7FFF718F8A0EB0901B7
:103E800041F28830814202D90320BDE8F09F616889
:103E9000DAF8000000F03800B0EBC10FECD1207868
:103EA00080070AD5E068296801F00F01884204D232
:103EB000296821F00F0101432960D8F8001040461D
:103EC00001F00F01B9420BD9016821F00F0139430C
:103ED0000160006800F00F00B84201D00120D4E773
:103EE000207840070AD52069296801F070018842CE
:103EF00004D2296821F0700101432960207800076D
:103F00000AD56069316801F07001884204D23168D5
:103F100021F07001014331602078C0060AD5A06904
:103F2000316801F4E061884204D2316821F4E06133
:103F300001433160207880060CD5E1695846DBF8F2
:103F4000002002F07002914204D2026822F0700256
:103F50000A43026000F06CF80E492A682B68C2F32D
:103F6000032203F00F038A5CC95C02F01F0201F018
:103F70001F01D040084A20FA01F11160074908608A
:103F800007480068BDE8F05FFEF7CCBF0020005294
:103F900018440258EED30008B0510124AC5101245A
:103FA000A451012430B500F043F80B4A0B490C4BE7
:103FB00015681468C5F3032204F00F048A5C095DD8
:103FC00002F01F0201F01F01D040064A20FA01F161
:103FD00019601060084630BD18440258EED300083E
:103FE000B0510124AC51012400B5FFF7DBFF0549B6
:103FF0000968054AC1F30211515C01F01F01C84074
:1040000000BD00001C440258EED3000800B5FFF7C5
:10401000C9FF05490968054AC1F30221515C01F055
:104020001F01C84000BD00001C440258EED3000828
:10403000454970B545480968434B103B11F03802BB
:1040400008D00111082A03D0102A0BD0182A0BD04F
:10405000084670BD19688906FBD51968C1F3C1010E
:10406000C84070BD3A4870BD3749374D18310C1DF6
:1040700024350A68096826682D6802F0030406F0F2
:104080000102C1F30511C5F3CC0515FB02F200EEE8
:10409000102AB8EE400AE9B32F4ADFED2E0AB7EE38
:1040A000001A6CB1DFED2D1A012C01D0022C43D087
:1040B00002EE101A1068F8EE422A81EEA22A1EE0E3
:1040C0001C68A40611D51B6801EE901A1168C3F391
:1040D000C103F8EE612AD84001EE900AC1F308004E
:1040E000F8EE611A81EEA22A0BE001EE901ADFEDE4
:1040F0001C2A00BFF8EE611A106882EEA12AC0F3F4
:10410000080001EE900AF8EE611A40EE201A31EE36
:10411000810A00E015E022EE000A1068C0F3462094
:10412000401C00EE900AF8EE600A80EE201ABCEE09
:10413000C10A10EE100A70BD01EE901ADFED092AD7
:10414000D8E7002070BD0000104402580090D00352
:1041500000366E0100000039304402580024744AD1
:104160000024744C001BB74BF0B50D461F49204C82
:10417000002887B016464FF000004FF002020F688B
:104180004FF0030319D047F004070F60096801F0EE
:104190000401059111020091CDE90120CDE9033020
:1041A00014486946FEF75CFD206845EAC61120F018
:1041B0007E400843206007B0F0BD47F001070F6064
:1041C000096801F0010105914FF480710091CDE97A
:1041D0000120CDE9033008486946FEF741FD20681B
:1041E000354320F0FE702843E4E70000E044025825
:1041F0001044025800080258000002582DE9F05FF0
:1042000004007DD0FF4F2078FE4D1837DFF8F4937F
:10421000103DC00748D0D9F80000396800F03800D8
:10422000102815D0182803D101F0030002280FD060
:104230006068B0F5803F12D010B1B0F5A02F18D053
:10424000286820F480302860286820F4802009E065
:104250002868800328D560680028D2D024E0286828
:1042600040F480302860606888B1FEF71FFE064683
:1042700009E0286840F480202860F0E7FEF716FE89
:10428000801B64286FD828688003F7D50CE0FEF700
:104290000DFE064605E000BFFEF708FE801B642801
:1042A000F0D828688003F7D4207841F20308D54E6F
:1042B0000C3E800769D5D9F80000396810F0380045
:1042C0000ED0182801D188070AD0E06890B3296879
:1042D00021F0190101432960FEF7E8FD824631E033
:1042E0002868400702D5E06800288AD0E16828687D
:1042F00020F0190008432860FEF7D8FD824607E049
:10430000DFE000BFFEF7D2FDA0EB0A000228B9D81B
:1043100028684007F6D500BFFEF7C2FD40451BD810
:104320002069402812D0316821F47C3141EA003004
:1043300030602AE018E000BFFEF7B8FDA0EB0A00ED
:1043400002289FD828684007F6D5E5E7306820F4B2
:104350007C3040F40030EBE7207C316821F0FE41F6
:1043600041EA0060E4E70DE1286820F001002860E0
:10437000FEF79CFD824605E0FEF798FDA0EB0A00E3
:1043800002288DD828684007F6D42078C0065DD56D
:10439000D9F80000DFF86CB2396800F03800ABF1F2
:1043A000040B082810D0182803D101F003000128BD
:1043B0000AD0E0690028286838D040F080002860E2
:1043C000FEF774FD824623E02868C00523D5E06926
:1043D000802876D11FE0206A202821D0316821F082
:1043E000F84141EA8060306030E000BF94F820106E
:1043F000DBF8002022F07C5242EA0161CBF8001089
:1044000024E000BFFEF752FDA0EB0A00022898D876
:104410002868C005F6D5FEF743FD4045E6D8DAE743
:10442000306820F0F84040F08040DCE720F0800069
:104430002860FEF73BFD064605E000BFFEF736FDAF
:10444000801B02289DD82868C005F7D42078000773
:1044500029D56C486169643000298046016811D013
:1044600041F001010160FEF721FD064605E000BFB5
:10447000FEF71CFD801B0228C9D8D8F80000800771
:10448000F6D510E021F001010160FEF70FFD0646B0
:1044900005E000BFFEF70AFD801B022872D8D8F89D
:1044A00000008007F6D42078800623D5A069002874
:1044B000286810D040F480502860FEF7F7FC0646CC
:1044C00005E036E1FEF7F2FC801B02285AD8286886
:1044D0008004F7D50EE020F480502860FEF7E6FC5B
:1044E000064604E0FEF7E2FC801B02284AD8286852
:1044F0008004F7D4207840074FD5DFF80C81D8F836
:10450000001041F48071C8F80010FEF7CFFC064699
:1045100005E000BFFEF7CAFC801B642832D8D8F83B
:104520000000C005F6D5374EA068603601280AD0D5
:1045300008B1052813D0306820F0010030603068E1
:1045400020F0040002E0306840F001003060A06814
:1045500041F2883A90B1FEF7A9FC80460AE0306843
:1045600040F004003060EEE7FEF7A0FCA0EB08018D
:10457000514507D830688007F6D50EE0FEF796FC67
:10458000804607E084E000BFFEF790FCA0EB080146
:1045900051457DD830688007F6D4606AB0B3DFF843
:1045A0006480D9F8001008F120084FF6F87B08F174
:1045B0000409C1F3C2010329A8F1040A69D0022841
:1045C000286820F08070286003D0FEF76FFC044656
:1045D00084E0FEF76BFC064605E000BFFEF766FCD4
:1045E000801B022877D828688001F7D4E26A40F25D
:1045F000F331386854F8283F884340EA02101843E2
:10460000386004E01044025800480258B5E0217BAD
:10461000434622894FF4FE0C208A4FF0FE474902A0
:10462000267D521E401EA1F50071C2F308088AB211
:10463000761E0CEA004042EA08020243504607EAAE
:1046400006610A431A60DAF8002022F00102CAF873
:104650000020D9F80020266A22EA0B0242EAC602AC
:10466000C9F80020DAF80010A26921F00C0111430A
:10467000CAF800100168E26921F0020111430160EB
:10468000016841F480310160016841F4003101E0CA
:1046900021E027E00160016841F4802101600168A8
:1046A00041F001010160286840F080702860FEF749
:1046B000FDFB044605E000BFFEF7F8FB001B0228E7
:1046C00009D828688001F7D557E000BFFEF7EEFB58
:1046D000001B022802D90320BDE8F09F2868800152
:1046E000F4D44AE039680128D8F8000021D0A26A41
:1046F00001F0030393421CD1E26AC1F305118A421F
:1047000017D1216BC0F30802491E8A4211D1616B97
:10471000C0F34622491E91420BD1A16BC0F3064261
:10472000491E914205D1E16BC0F30660491E8142EA
:1047300001D00120D0E7A16C4E46D9F80000C0F3AB
:10474000CC00814219D0DAF80000554620F0010073
:10475000CAF80000FEF7AAFB4FEA0007FEF7A6FB27
:10476000B842FBD0A26C306820EA0B0040EAC200DD
:104770003060286840F0010028600020ACE70000AD
:104780002DE9F047040029D0594A4FF0000920686C
:10479000584B594D9042C4F8289006D0984204D006
:1047A000A84202D0E1680F2918D8E1684FF0010A49
:1047B000E76B0831C9080AEB57167143904205D0E0
:1047C000984203D0A84201D0082907D8904203D0CC
:1047D000984201D0A84204D1102902D90120BDE895
:1047E000F08794F8810020B9204684F8809000F08A
:1047F00085F8022084F881002068016821F0010119
:1048000001602068A1698268B1F1806F02F4F8113B
:1048100010D16268B2F5800F01D01AB10AE0A26B24
:1048200022B107E0A26BB2F1805F03D1026842F4CB
:10483000805202606068400209D5E068072806D30C
:104840002068236D026822F480721A4303E0206816
:10485000026822F480720260A66AE069E26B256851
:104860003043E3680A4310431843A860D4E90D02BB
:10487000D4E90581636A25691843D4F820C00A4346
:10488000266810432843A56DD4E90172D4E912319A
:1048900040EA080040EA0C0038430843104318433C
:1048A0002843F060606868B92068816821F4C051CD
:1048B00041F4006181602068816821F4C06141F4A5
:1048C000806181602068016D21F0010101656068EF
:1048D000400206D52068626DC16821F00041114395
:1048E000C160C4F8849084F881A0002077E70000BC
:1048F0000030014000380040003C00402DE9F0410C
:10490000B6B00446C0216846FBF72EFD142130A83E
:10491000FBF72AFD3D492068884274D181144FF08D
:10492000010800226846102314468DE80E00022676
:10493000642503952027CDE904861891CDE9066208
:10494000CDE90872FEF72AFD08B1FCF74BFB3048B1
:10495000016841F480510160006800F48050359096
:104960002B481038016841F001010160016801F035
:1049700001013591016841F008010160016801F011
:1049800008013591016841F002010160016801F000
:1049900002013591016841F004010160006832AA0A
:1049A000032500F0040035908020CDE9300605276E
:1049B000184882E8B00030A9FEF752F9182032AA50
:1049C000CDE93006144830A982E8B000FEF748F976
:1049D000124F4FF40046CDE93068CDE9328530A959
:1049E00044463846FEF73CF9012231463846FEF788
:1049F00052FA42F21000CDE93004094830A9CDE95D
:104A00003245FEF72DF936B0BDE8F08100300140A7
:104A1000F0440258000C02580004025800000258EA
:104A2000000802582DE9FC5F0446006817468A46D4
:104A30000021994694F8802000F1200B0191012A71
:104A40000DD04FF0010884F88080FEF72FFA06465B
:104A500094F881000025012804D0022034E00220CF
:104A6000BDE8FC9FBAF1000F2DD067B3A168032009
:104A7000C4F85CA0A4F8607084F88100C4F8845085
:104A8000A4F862706566A4F86850A4F86A50B1F59D
:104A9000C02F65672567206819D0C16821F4C0213F
:104AA00041F40031C160206841686FF30F01394360
:104AB00041602068016841F0010101606068B0F563
:104AC000800F09D00DE0012084F88050C8E701680C
:104AD00041F400610160E6E72068016841F400717B
:104AE0000160E0680F281CD820E020684169890730
:104AF0000BD5E16D09680162E06D001DE065B4F859
:104B00006200401EA4F862000BE0FEF7CFF9811BA3
:104B1000494503D3B9F1FF3F03D099E0B9F1000F44
:104B200030D0B4F862000028DFD177E007282DD814
:104B300070E02068416989071CD5B4F8621001292A
:104B40000BD9E16B49B1E16D09680162E06D001DAF
:104B5000E065B4F86200801E09E0E06D0188ABF802
:104B60000010E06D801CE065B4F86200401EA4F8FF
:104B700062000BE0FEF79AF9811B494503D3B9F1B6
:104B8000FF3F03D064E0B9F1000F61D0B4F86200D8
:104B90000028CED142E02068416989072ED5B4F8BB
:104BA000621003290CD9E16B402909D9E16D09682C
:104BB0000162E06D001DE065B4F86200001F1AE0BC
:104BC000B4F8621001290CD9E16B51B1E06D018894
:104BD000ABF80010E06D801CE065B4F86200801E48
:104BE00009E0E16D097880F82010E06D401CE06577
:104BF000B4F86200401EA4F862000BE0FEF756F91C
:104C0000811B494503D3B9F1FF3F03D020E0B9F13F
:104C1000000F1DD0B4F862000028BCD100224B4622
:104C200008212046009601F077FF28B1D4F88400CF
:104C300040F02000C4F88400204601F027FE84F8EC
:104C40008180D4F8840084F8805080B1012007E787
:104C5000204601F01BFED4F8841084F8805041F403
:104C60008071C4F8841084F881800320F8E60198EC
:104C7000F6E6401EB0F1807F10B501D3012010BDD3
:104C80004FF0E02460610F21601702F08EFF0020DA
:104C9000A0610721216110BD704770477047000077
:104CA000F0B590F83C20012A3BD01F4E012480F83B
:104CB0003C40022280F83D2002681C4D5368B242FD
:104CC000D2F808C001D0AA4203D14F6823F4700380
:104CD0003B430F6823F070031F4357600268B242E2
:104CE00013D0B2F1804F10D0114B9A420DD0114B1E
:104CF0009A420AD0104B9A4207D0AA4205D00F4BD5
:104D00009A4202D00E4B9A4204D189682CF080035B
:104D100019439160002180F83D4080F83C1008461E
:104D2000F0BD0220F0BD0000000001400004014081
:104D30000004004000080040000C00400018004043
:104D40000040014010B5040003D094F83D0010B1BC
:104D500007E0012010BD002084F83C00204600F050
:104D600023F8022084F83D002068211D02F02CF871
:104D7000012084F8480084F83E0084F83F0084F85D
:104D8000400084F8410084F8420084F8430084F82D
:104D9000440084F8450084F8460084F8470084F80D
:104DA0003D00002010BD000008B501681D48B1F1AC
:104DB000804F11D01C4A91421DD1016841F002017F
:104DC000016000680022114600F0020000901D20E2
:104DD000FEF732F91D201FE0016841F0010101607A
:104DE00000680022114600F0010000901C20FEF730
:104DF00023F91C2010E00D4A914211D1016841F0C5
:104E00000401016000680022114600F004000090D7
:104E10001E20FEF711F91E20BDE80840FEF7FEB87F
:104E200008BD0000E84402580004004000080040AB
:104E300090F83D10012901D001207047174A022146
:104E400080F83D100168CB6843F00103CB60006837
:104E5000904214D0B0F1804F11D0114988420ED049
:104E6000104988420BD01049884208D00F49884227
:104E700005D00F49884202D00E49884207D1816887
:104E80000D4A1140062906D0B1F5803F03D00168D4
:104E900041F0010101600020704700000000014066
:104EA0000004004000080040000C004000040140E5
:104EB00000180040004001400700010070B50446A2
:104EC00090F83C000025012814D03A4B012684F8C4
:104ED0003C60022084F83D0022689068184020F46D
:104EE0007F409060086870282FD010DC10F00F0F02
:104EF00003D022E04FF0020070BD4FEA2012072AD3
:104F00001BD2DFE802F0535353534B394100B0F149
:104F1000101F4BD009DCB0F5805F0FD0B0F5005FFB
:104F20001ED0B0F5801F08D140E0A0F580112039D7
:104F30003CD010293AD0202938D0012584F83D6092
:104F4000002084F83C00284670BD4A682068D1E9FA
:104F5000021301F09BFF2068816841F0770109E0AE
:104F60004A682068D1E9021301F090FF2068816847
:104F700041F480418160E1E7CA684968206801F036
:104F800099FF2068502106E0CA684968206801F04E
:104F9000A2FF2068602101F083FFCFE7CA6849685B
:104FA000206801F087FF20684021F4E7226801466D
:104FB0001046F0E788FFCEFF704770B504460068E2
:104FC00000250169C943890715D4C168C943890708
:104FD00011D4EA1E026101212177206880698007CF
:104FE000204602D0FFF7E8FF04E000F0A7F82046D3
:104FF00000F0A5F8257720680169C943490717D44F
:10500000C168C943490713D402216FF00402026149
:1050100021772068806910F4407F204602D0FFF796
:10502000CBFF04E000F08AF8204600F088F82577EE
:1050300020680169C943090716D4C168C943090733
:1050400012D404216FF00802026121772068C06940
:105050008007204602D0FFF7AFFF04E000F06EF8B3
:10506000204600F06CF8257720680169C943C9061D
:1050700017D4C168C943C90613D408216FF01002C0
:10508000026121772068C06910F4407F204602D079
:10509000FFF792FF04E000F051F8204600F04FF8CF
:1050A000257720680169C943C90708D1C168C94388
:1050B000C90704D1891E0161204600F041F820682B
:1050C0000169C943090609D4C168C943090605D461
:1050D0006FF0800101612046FFF7DFFD2068016964
:1050E000C943C90509D4C168C943090605D46FF489
:1050F000807101612046FFF7CFFD20680169C94337
:10510000490609D4C168C943490605D46FF0400176
:105110000161204600F024F820680169C94389062E
:105120000BD4C168C943890607D46FF0200101611F
:105130002046BDE87040FFF7B1BD70BD70477047B5
:105140000068B0F1804F06D103480078002802D0F3
:1051500002490120087070478151012482510124C5
:105160007047704770477047704770472DE9F041AE
:1051700007680025044640F60F030226F8693968DF
:10518000BA6818420AD183067ED501F0200302F0E6
:10519000805C53EA0C0377D0616F74E1CF4BDFF88A
:1051A00040C3134001EA0C0C53EA0C0C6CD05FEACC
:1051B000C07C0CD05FEAC15C09D54FF0010CC7F888
:1051C00020C0D4F8907047F00107C4F890708707AA
:1051D00009D5D70707D027683E62D4F8906046F01B
:1051E0000406C4F8906046070AD5D60708D0276899
:1051F00004263E62D4F8906046F00206C4F890603F
:1052000006070CD501F020061E4308D026680823A7
:105210003362D4F8903043F00803C4F890300305AB
:105220000BD54B0109D526684FF400633362D4F8DF
:10523000903043F02003C4F89030D4F89030002B25
:105240003DD0800609D501F0200002F080510843CE
:1052500003D0616F09B1204688472168D4F89000D7
:105260008968490602D410F0280F2AD0204601F0A0
:1052700007FF2068806840061ED52068083050E887
:10528000001F21F0400100E021E040E80012002A68
:10529000F3D1D4F8800078B192490165D4F8800048
:1052A000FCF7E6FC00280AD0D4F88000016D00E08D
:1052B0002046BDE8F04108472046FFF756FFBDE80D
:1052C000F0812046FFF751FFC4F89050F7E7D4F87B
:1052D0006CC02023BCF1010F7ED15FEAC06C7BD58E
:1052E0005FEAC16C78D5102038622068806840067B
:1052F00073D5D4F880107C4A0868904234D07A4A3A
:105300001832904230D0784A303290422CD0764ACF
:105310004832904228D0744A6032904224D0724A77
:105320007832904220D0704A903290421CD06E4A1F
:10533000A832904218D06D4A904215D06B4A18326C
:10534000904211D0694A303290420DD0674A4832BB
:10535000904209D0654A6032904205D0634A783263
:10536000904201D0614A903240680004000CA6D0FF
:10537000B4F85C208242A2D9A4F85E00C869B0F5F6
:10538000807F2FD0216851E8000F20F4807041E821
:105390000002002AF6D12068083050E8001F21F0F2
:1053A000010140E80012002AF5D12068083050E8D9
:1053B000001F21F0400140E80012002AF5D1C4F896
:1053C0008C30E566216851E8000F20F0100041E8BC
:1053D0000002002AF6D101E040E00BE0D4F88000A2
:1053E000FCF796FA2667B4F85C00B4F85E10401A31
:1053F00081B22FE0B4F85C00B4F85E10B4F85E201F
:10540000401A81B2002AB2D00029B0D0226852E8F6
:10541000000F20F4907042E80007002FF6D1344FBF
:10542000206800F1080050E8002F02EA070240E877
:10543000002CBCF1000FF3D1C4F88C30E566656731
:10544000206850E8002F22F0100240E80023002BD3
:10545000F6D126672046FFF784FE30E7C60209D55D
:10546000560207D54FF4801038622046BDE8F0415F
:10547000FFF77ABE06060AD501F0800602F40002A4
:10548000164304D0A16F00297FF412AF17E742063C
:1054900011D54A060FD52046026852E8001F21F0B8
:1054A000400142E80014002CF6D1C0F8883085672E
:1054B00000F02AF903E7020206D54A0004D5204687
:1054C000BDE8F041FFF74FBEC001C6D50029C4DAE0
:1054D0002046BDE8F041FFF745BE00000100001086
:1054E000200100046D70000810000240100402400A
:1054F000FEFFFFEF10B5040003D0D4F8880010B110
:1055000007E0012010BD002084F88400204600F050
:1055100027F82420C4F888002068016821F00101E0
:105520000160204602F03EF80128EBD0A06A10B1DD
:10553000204601F0E2FC2068416821F4904141607E
:105540002068816821F02A0181602068016841F0AB
:10555000010101602046BDE8104001F032BD0000AD
:1055600010B586B0044614216846FAF7FDFE1649C8
:105570002068884226D11548016841F01001016079
:10558000006800F01000059010481038016841F0E4
:105590000101016000680221012200F00100059074
:1055A000032307244FF4C0608DE81F0008486946B4
:1055B000FDF756FB032225201146FDF73DFD252072
:1055C000FDF72CFD06B010BD00100140F04402585C
:1055D0000000025830B4D0F88C30202B02D00220CA
:1055E00030BC7047A9B1A2B10B4D00240368C4665A
:1055F000AB420BD05B681B0208D5046854E8003F3F
:1056000043F0806344E80035002DF6D130BC02F051
:105610009FB90120E4E70000000C005800680A4927
:10562000884210D109480A490078312802D0302830
:1056300002D003E0012000E00020087003490122AD
:105640000448FFF7C7BF7047001001408051012494
:10565000815101249CCB01242DE9F8430446D0F864
:105660008800984616460D46202802D00220BDE844
:10567000F883A5B19EB10021C4F890102120C4F890
:1056800088001834FDF712FC814654F8100CA687E8
:10569000E6872027183CB0F5805F02D003E00120A8
:1056A000E5E7206910B12E46002510E000260EE047
:1056B0008021204602F0D4F9C0B9DEB116F8010B02
:1056C00021688862B4F85600401EA4F85600B4F869
:1056D00056004B464FF00002CDF800800028E7D17D
:1056E0004FF04001204602F0BBF948B1C4F8887081
:1056F0000320BCE735F8020B2168C0F30800E0E79F
:10570000C4F888700020B2E77047FEE770B5174C08
:105710006189A089491E8AB2401E83B200210846D1
:1057200000F0F8FA124801221021FDF7B4FB114DE8
:105730000F20A4F68806696921F400416961F060D0
:105740003046FFF71DF86289A089A188424389B2DB
:10575000304600F067F96969072041F4004169614A
:10576000F0603046BDE87040FFF70AB8FCFC012449
:1057700000080258000002582DE9F0411E46144668
:105780008B1902195B1E521E9BB292B200F0C2FA34
:10579000114801221021FDF77EFB104D0F20104F04
:1057A000696921F400416961F8603846FEF7E8FF55
:1057B00007F6880004FB06F2808881B2384600F0C4
:1057C00031F96969072041F400416961F8603846A0
:1057D000BDE8F041FEF7D4BF0008025800000258AF
:1057E00074F401242DE9F0411D4617464B19C219E6
:1057F000DDF818805B1E521E9BB292B200F08AFA4E
:10580000104E0F20F0603046FEF7BAFF0E4801221E
:105810001021FDF740FB0D4C606920F400406061F1
:1058200007FB05F24146304600F0A8F96169072000
:1058300041F400416161F0603046BDE8F041FEF79F
:105840009FBF000074F401240008025800000258B1
:105850002DE9F05FDFF8A0E0203A0023274E02F0A8
:10586000FF0A894683461A46DEF80000194626E0FC
:10587000234DD0F80080B5F800C0AF880AFB04853E
:105880001FFA8CFCBFB2002413F805505FEAC578FC
:1058900002D026F812C001E026F81270B0F8048099
:1058A000491C521C89B26D0892B2884501D1002171
:1058B00003E0641CA4B2082CE8D35B1C9BB20489EF
:1058C0009C42D5D8C288A9F101018388ABF10100BF
:1058D0001144744618448BB2494682B2584600F0CF
:1058E00019FA20688188C088BDE8F05F4143034809
:1058F00089B200F095BA000090510124FCF4012413
:10590000FCFC01247FB51E460C4606A10546134645
:105910003246684602F022F96A462146284600F0DF
:1059200005F87FBD25302E2A640000002DE9F041E6
:105930000B4F15460B4E8846044608E0414620466C
:10594000FFF786FF38686D1C8088204484B2708918
:10595000A04202D92A78002AF0D1BDE8F0810000E7
:1059600090510124FCFC012410B5026840F26F3311
:105970005169946944F0080494610268946944F0A0
:10598000100494610268146824F001041460026831
:1059900014699C4314610268936823F44043936044
:1059A00090F88120042A0CD08A060AD5D0F88420E9
:1059B00042F08002C0F884200268936943F020031B
:1059C000936190F88120032A0CD04A060AD5D0F8BA
:1059D000842042F00402C0F884200268936943F0F6
:1059E000400393618A050AD5D0F8842042F0010271
:1059F000C0F884200268936943F400739361C90579
:105A00000AD5D0F8841041F00801C0F8841001686C
:105A10008A6942F480728A610021A0F86210A0F8BD
:105A20006A1010BD2DE9FC5F8A4690F8801004468C
:105A300016460020019001294FF47A770DD04FF0DF
:105A4000010884F88080FDF731FA814694F88100DE
:105A50000025012804D0022017E00220BDE8FC9FA9
:105A600096B1A16803204AEA0A4B84F88100C4F881
:105A700084506566A4F86850A4F86A50B1F5C02F48
:105A80006567256704D008E0012084F88050E5E7C9
:105A90002068016841F400610160206841686FF38B
:105AA0000F0141602068016841F0010101606068F8
:105AB000B0F5800F04D12068016841F400710160E5
:105AC0002068416989070DD5B4F86210012905D90C
:105AD000E16B19B1C0F820B0B61E17E0A0F820A005
